{
  "contractName": "Administrator",
  "abi": [
    {
      "inputs": [
        {
          "components": [
            {
              "internalType": "string",
              "name": "fundingName",
              "type": "string"
            },
            {
              "internalType": "uint256",
              "name": "targetAmount",
              "type": "uint256"
            },
            {
              "internalType": "uint256",
              "name": "currentAmount",
              "type": "uint256"
            },
            {
              "internalType": "uint256",
              "name": "fundingStartDate",
              "type": "uint256"
            },
            {
              "internalType": "uint256",
              "name": "fundingEndDate",
              "type": "uint256"
            }
          ],
          "internalType": "struct ProjectFunding.funding",
          "name": "_newFunding",
          "type": "tuple"
        }
      ],
      "name": "registerPFunding",
      "outputs": [],
      "stateMutability": "nonpayable",
      "type": "function"
    },
    {
      "inputs": [
        {
          "internalType": "address",
          "name": "_pFAddr",
          "type": "address"
        }
      ],
      "name": "getPFunding",
      "outputs": [
        {
          "components": [
            {
              "internalType": "string",
              "name": "fundingName",
              "type": "string"
            },
            {
              "internalType": "uint256",
              "name": "targetAmount",
              "type": "uint256"
            },
            {
              "internalType": "uint256",
              "name": "currentAmount",
              "type": "uint256"
            },
            {
              "internalType": "uint256",
              "name": "fundingStartDate",
              "type": "uint256"
            },
            {
              "internalType": "uint256",
              "name": "fundingEndDate",
              "type": "uint256"
            }
          ],
          "internalType": "struct ProjectFunding.funding",
          "name": "",
          "type": "tuple"
        }
      ],
      "stateMutability": "nonpayable",
      "type": "function"
    },
    {
      "inputs": [
        {
          "components": [
            {
              "internalType": "string",
              "name": "fundingName",
              "type": "string"
            },
            {
              "internalType": "uint256",
              "name": "targetAmount",
              "type": "uint256"
            },
            {
              "internalType": "uint256",
              "name": "currentAmount",
              "type": "uint256"
            },
            {
              "internalType": "uint256",
              "name": "fundingStartDate",
              "type": "uint256"
            },
            {
              "internalType": "uint256",
              "name": "fundingEndDate",
              "type": "uint256"
            }
          ],
          "internalType": "struct ChangesFunding.funding",
          "name": "_newFunding",
          "type": "tuple"
        }
      ],
      "name": "registerCFunding",
      "outputs": [],
      "stateMutability": "nonpayable",
      "type": "function"
    },
    {
      "inputs": [
        {
          "internalType": "address",
          "name": "_cFAddr",
          "type": "address"
        }
      ],
      "name": "getCFunding",
      "outputs": [
        {
          "components": [
            {
              "internalType": "string",
              "name": "fundingName",
              "type": "string"
            },
            {
              "internalType": "uint256",
              "name": "targetAmount",
              "type": "uint256"
            },
            {
              "internalType": "uint256",
              "name": "currentAmount",
              "type": "uint256"
            },
            {
              "internalType": "uint256",
              "name": "fundingStartDate",
              "type": "uint256"
            },
            {
              "internalType": "uint256",
              "name": "fundingEndDate",
              "type": "uint256"
            }
          ],
          "internalType": "struct ChangesFunding.funding",
          "name": "",
          "type": "tuple"
        }
      ],
      "stateMutability": "nonpayable",
      "type": "function"
    },
    {
      "inputs": [
        {
          "internalType": "address",
          "name": "_addr",
          "type": "address"
        }
      ],
      "name": "setDonator",
      "outputs": [],
      "stateMutability": "nonpayable",
      "type": "function"
    },
    {
      "inputs": [
        {
          "internalType": "address",
          "name": "_addr",
          "type": "address"
        }
      ],
      "name": "getDonator",
      "outputs": [
        {
          "components": [
            {
              "internalType": "address",
              "name": "donatorAddr",
              "type": "address"
            },
            {
              "internalType": "address[]",
              "name": "myDonatedPFList",
              "type": "address[]"
            },
            {
              "internalType": "address[]",
              "name": "myDonatedCFList",
              "type": "address[]"
            }
          ],
          "internalType": "struct Administrator.Donator",
          "name": "",
          "type": "tuple"
        }
      ],
      "stateMutability": "view",
      "type": "function",
      "constant": true
    },
    {
      "inputs": [
        {
          "internalType": "address",
          "name": "_addr",
          "type": "address"
        }
      ],
      "name": "addDonatedPFList",
      "outputs": [],
      "stateMutability": "nonpayable",
      "type": "function"
    },
    {
      "inputs": [
        {
          "internalType": "address",
          "name": "_addr",
          "type": "address"
        }
      ],
      "name": "addDonatedCFList",
      "outputs": [],
      "stateMutability": "nonpayable",
      "type": "function"
    }
  ],
  "bytecode": "0x608060405234801561001057600080fd5b50611639806100206000396000f3fe608060405234801561001057600080fd5b50600436106100885760003560e01c80639a1046f01161005b5780639a1046f014610125578063a5a2a09314610141578063d38150dd14610171578063d63b0f031461018d57610088565b806323c4948c1461008d5780632deab769146100bd578063489ac07c146100d957806352e1ea8914610109575b600080fd5b6100a760048036038101906100a29190610a34565b6101a9565b6040516100b49190610b76565b60405180910390f35b6100d760048036038101906100d29190610dc6565b610374565b005b6100f360048036038101906100ee9190610a34565b610439565b6040516101009190610f13565b60405180910390f35b610123600480360381019061011e9190610a34565b61051c565b005b61013f600480360381019061013a9190610fdd565b610637565b005b61015b60048036038101906101569190610a34565b6106fb565b604051610168919061109c565b60405180910390f35b61018b60048036038101906101869190610a34565b6107e1565b005b6101a760048036038101906101a29190610a34565b610887565b005b6101b161092d565b600460008373ffffffffffffffffffffffffffffffffffffffff1673ffffffffffffffffffffffffffffffffffffffff1681526020019081526020016000206040518060600160405290816000820160009054906101000a900473ffffffffffffffffffffffffffffffffffffffff1673ffffffffffffffffffffffffffffffffffffffff1673ffffffffffffffffffffffffffffffffffffffff168152602001600182018054806020026020016040519081016040528092919081815260200182805480156102d657602002820191906000526020600020905b8160009054906101000a900473ffffffffffffffffffffffffffffffffffffffff1673ffffffffffffffffffffffffffffffffffffffff168152602001906001019080831161028c575b505050505081526020016002820180548060200260200160405190810160405280929190818152602001828054801561036457602002820191906000526020600020905b8160009054906101000a900473ffffffffffffffffffffffffffffffffffffffff1673ffffffffffffffffffffffffffffffffffffffff168152602001906001019080831161031a575b5050505050815250509050919050565b33600260006101000a81548173ffffffffffffffffffffffffffffffffffffffff021916908373ffffffffffffffffffffffffffffffffffffffff16021790555080600360003373ffffffffffffffffffffffffffffffffffffffff1673ffffffffffffffffffffffffffffffffffffffff168152602001908152602001600020600082015181600001908161040a91906112ca565b506020820151816001015560408201518160020155606082015181600301556080820151816004015590505050565b610441610964565b816000806101000a81548173ffffffffffffffffffffffffffffffffffffffff021916908373ffffffffffffffffffffffffffffffffffffffff16021790555060008054906101000a900473ffffffffffffffffffffffffffffffffffffffff1673ffffffffffffffffffffffffffffffffffffffff166312af5f986040518163ffffffff1660e01b8152600401600060405180830381865afa1580156104ec573d6000803e3d6000fd5b505050506040513d6000823e3d601f19601f8201168201806040525081019061051591906114c9565b9050919050565b600073ffffffffffffffffffffffffffffffffffffffff16600460008373ffffffffffffffffffffffffffffffffffffffff1673ffffffffffffffffffffffffffffffffffffffff16815260200190815260200160002060000160009054906101000a900473ffffffffffffffffffffffffffffffffffffffff1673ffffffffffffffffffffffffffffffffffffffff16036106345780600460008373ffffffffffffffffffffffffffffffffffffffff1673ffffffffffffffffffffffffffffffffffffffff16815260200190815260200160002060000160006101000a81548173ffffffffffffffffffffffffffffffffffffffff021916908373ffffffffffffffffffffffffffffffffffffffff1602179055505b50565b336000806101000a81548173ffffffffffffffffffffffffffffffffffffffff021916908373ffffffffffffffffffffffffffffffffffffffff16021790555080600160003373ffffffffffffffffffffffffffffffffffffffff1673ffffffffffffffffffffffffffffffffffffffff16815260200190815260200160002060008201518160000190816106cc91906112ca565b506020820151816001015560408201518160020155606082015181600301556080820151816004015590505050565b610703610993565b81600260006101000a81548173ffffffffffffffffffffffffffffffffffffffff021916908373ffffffffffffffffffffffffffffffffffffffff160217905550600260009054906101000a900473ffffffffffffffffffffffffffffffffffffffff1673ffffffffffffffffffffffffffffffffffffffff166312af5f986040518163ffffffff1660e01b8152600401600060405180830381865afa1580156107b1573d6000803e3d6000fd5b505050506040513d6000823e3d601f19601f820116820180604052508101906107da91906115ba565b9050919050565b600460008273ffffffffffffffffffffffffffffffffffffffff1673ffffffffffffffffffffffffffffffffffffffff168152602001908152602001600020600201339080600181540180825580915050600190039060005260206000200160009091909190916101000a81548173ffffffffffffffffffffffffffffffffffffffff021916908373ffffffffffffffffffffffffffffffffffffffff16021790555050565b600460008273ffffffffffffffffffffffffffffffffffffffff1673ffffffffffffffffffffffffffffffffffffffff168152602001908152602001600020600101339080600181540180825580915050600190039060005260206000200160009091909190916101000a81548173ffffffffffffffffffffffffffffffffffffffff021916908373ffffffffffffffffffffffffffffffffffffffff16021790555050565b6040518060600160405280600073ffffffffffffffffffffffffffffffffffffffff16815260200160608152602001606081525090565b6040518060a0016040528060608152602001600081526020016000815260200160008152602001600081525090565b6040518060a0016040528060608152602001600081526020016000815260200160008152602001600081525090565b6000604051905090565b600080fd5b600080fd5b600073ffffffffffffffffffffffffffffffffffffffff82169050919050565b6000610a01826109d6565b9050919050565b610a11816109f6565b8114610a1c57600080fd5b50565b600081359050610a2e81610a08565b92915050565b600060208284031215610a4a57610a496109cc565b5b6000610a5884828501610a1f565b91505092915050565b610a6a816109f6565b82525050565b600081519050919050565b600082825260208201905092915050565b6000819050602082019050919050565b6000610aa88383610a61565b60208301905092915050565b6000602082019050919050565b6000610acc82610a70565b610ad68185610a7b565b9350610ae183610a8c565b8060005b83811015610b12578151610af98882610a9c565b9750610b0483610ab4565b925050600181019050610ae5565b5085935050505092915050565b6000606083016000830151610b376000860182610a61565b5060208301518482036020860152610b4f8282610ac1565b91505060408301518482036040860152610b698282610ac1565b9150508091505092915050565b60006020820190508181036000830152610b908184610b1f565b905092915050565b600080fd5b6000601f19601f8301169050919050565b7f4e487b7100000000000000000000000000000000000000000000000000000000600052604160045260246000fd5b610be682610b9d565b810181811067ffffffffffffffff82111715610c0557610c04610bae565b5b80604052505050565b6000610c186109c2565b9050610c248282610bdd565b919050565b600080fd5b600080fd5b600080fd5b600067ffffffffffffffff821115610c5357610c52610bae565b5b610c5c82610b9d565b9050602081019050919050565b82818337600083830152505050565b6000610c8b610c8684610c38565b610c0e565b905082815260208101848484011115610ca757610ca6610c33565b5b610cb2848285610c69565b509392505050565b600082601f830112610ccf57610cce610c2e565b5b8135610cdf848260208601610c78565b91505092915050565b6000819050919050565b610cfb81610ce8565b8114610d0657600080fd5b50565b600081359050610d1881610cf2565b92915050565b600060a08284031215610d3457610d33610b98565b5b610d3e60a0610c0e565b9050600082013567ffffffffffffffff811115610d5e57610d5d610c29565b5b610d6a84828501610cba565b6000830152506020610d7e84828501610d09565b6020830152506040610d9284828501610d09565b6040830152506060610da684828501610d09565b6060830152506080610dba84828501610d09565b60808301525092915050565b600060208284031215610ddc57610ddb6109cc565b5b600082013567ffffffffffffffff811115610dfa57610df96109d1565b5b610e0684828501610d1e565b91505092915050565b600081519050919050565b600082825260208201905092915050565b60005b83811015610e49578082015181840152602081019050610e2e565b60008484015250505050565b6000610e6082610e0f565b610e6a8185610e1a565b9350610e7a818560208601610e2b565b610e8381610b9d565b840191505092915050565b610e9781610ce8565b82525050565b600060a0830160008301518482036000860152610eba8282610e55565b9150506020830151610ecf6020860182610e8e565b506040830151610ee26040860182610e8e565b506060830151610ef56060860182610e8e565b506080830151610f086080860182610e8e565b508091505092915050565b60006020820190508181036000830152610f2d8184610e9d565b905092915050565b600060a08284031215610f4b57610f4a610b98565b5b610f5560a0610c0e565b9050600082013567ffffffffffffffff811115610f7557610f74610c29565b5b610f8184828501610cba565b6000830152506020610f9584828501610d09565b6020830152506040610fa984828501610d09565b6040830152506060610fbd84828501610d09565b6060830152506080610fd184828501610d09565b60808301525092915050565b600060208284031215610ff357610ff26109cc565b5b600082013567ffffffffffffffff811115611011576110106109d1565b5b61101d84828501610f35565b91505092915050565b600060a08301600083015184820360008601526110438282610e55565b91505060208301516110586020860182610e8e565b50604083015161106b6040860182610e8e565b50606083015161107e6060860182610e8e565b5060808301516110916080860182610e8e565b508091505092915050565b600060208201905081810360008301526110b68184611026565b905092915050565b7f4e487b7100000000000000000000000000000000000000000000000000000000600052602260045260246000fd5b6000600282049050600182168061110557607f821691505b602082108103611118576111176110be565b5b50919050565b60008190508160005260206000209050919050565b60006020601f8301049050919050565b600082821b905092915050565b6000600883026111807fffffffffffffffffffffffffffffffffffffffffffffffffffffffffffffffff82611143565b61118a8683611143565b95508019841693508086168417925050509392505050565b6000819050919050565b60006111c76111c26111bd84610ce8565b6111a2565b610ce8565b9050919050565b6000819050919050565b6111e1836111ac565b6111f56111ed826111ce565b848454611150565b825550505050565b600090565b61120a6111fd565b6112158184846111d8565b505050565b5b818110156112395761122e600082611202565b60018101905061121b565b5050565b601f82111561127e5761124f8161111e565b61125884611133565b81016020851015611267578190505b61127b61127385611133565b83018261121a565b50505b505050565b600082821c905092915050565b60006112a160001984600802611283565b1980831691505092915050565b60006112ba8383611290565b9150826002028217905092915050565b6112d382610e0f565b67ffffffffffffffff8111156112ec576112eb610bae565b5b6112f682546110ed565b61130182828561123d565b600060209050601f8311600181146113345760008415611322578287015190505b61132c85826112ae565b865550611394565b601f1984166113428661111e565b60005b8281101561136a57848901518255600182019150602085019450602081019050611345565b868310156113875784890151611383601f891682611290565b8355505b6001600288020188555050505b505050505050565b60006113af6113aa84610c38565b610c0e565b9050828152602081018484840111156113cb576113ca610c33565b5b6113d6848285610e2b565b509392505050565b600082601f8301126113f3576113f2610c2e565b5b815161140384826020860161139c565b91505092915050565b60008151905061141b81610cf2565b92915050565b600060a0828403121561143757611436610b98565b5b61144160a0610c0e565b9050600082015167ffffffffffffffff81111561146157611460610c29565b5b61146d848285016113de565b60008301525060206114818482850161140c565b60208301525060406114958482850161140c565b60408301525060606114a98482850161140c565b60608301525060806114bd8482850161140c565b60808301525092915050565b6000602082840312156114df576114de6109cc565b5b600082015167ffffffffffffffff8111156114fd576114fc6109d1565b5b61150984828501611421565b91505092915050565b600060a0828403121561152857611527610b98565b5b61153260a0610c0e565b9050600082015167ffffffffffffffff81111561155257611551610c29565b5b61155e848285016113de565b60008301525060206115728482850161140c565b60208301525060406115868482850161140c565b604083015250606061159a8482850161140c565b60608301525060806115ae8482850161140c565b60808301525092915050565b6000602082840312156115d0576115cf6109cc565b5b600082015167ffffffffffffffff8111156115ee576115ed6109d1565b5b6115fa84828501611512565b9150509291505056fea2646970667358221220b5408428b59131dfb344721c996dff5aed7c7a259a0ee1d12dff11365b47b3da64736f6c63430008110033",
  "immutableReferences": {},
  "source": "// SPDX-License-Identifier: MIT\n\npragma solidity >=0.4.22 <0.9.0;\n\nimport \"./ProjectFunding.sol\";\nimport \"./ChangesFunding.sol\";\n\ncontract Administrator {\n  \n    ProjectFunding pF; //     pF\n    mapping (address => ProjectFunding.funding) pFundings; //   \n    ChangesFunding cF; //     cF\n    mapping (address => ChangesFunding.funding) cFundings; //   \n\n    struct Donator { //  \n        address donatorAddr;\n        address[] myDonatedPFList; //     \n        address[] myDonatedCFList; //     \n    }\n\n    mapping (address => Donator) donators; //  \n\n    //    -        ( 1)\n    function registerPFunding(ProjectFunding.funding memory _newFunding) public {\n        pF = ProjectFunding(msg.sender); // msg.sender     \n        pFundings[msg.sender] = _newFunding;\n    }\n\n    //    \n    function getPFunding(address _pFAddr) public returns (ProjectFunding.funding memory){\n        pF = ProjectFunding(_pFAddr);\n        return pF.getFunding();\n    }\n\n    //    -        ( 1)\n    function registerCFunding(ChangesFunding.funding memory _newFunding) public {\n        cF = ChangesFunding(msg.sender); // msg.sender     \n        cFundings[msg.sender] = _newFunding;\n    }\n\n    //    \n    function getCFunding(address _cFAddr) public returns (ChangesFunding.funding memory){\n        cF = ChangesFunding(_cFAddr);\n        return cF.getFunding();\n    }\n\n    //   ->      \n    function setDonator(address _addr) public {\n        if(donators[_addr].donatorAddr == address(0)) {\n            donators[_addr].donatorAddr = _addr;\n        }\n    }\n\n    function getDonator(address _addr) public view returns (Donator memory) {\n        return donators[_addr];\n    }\n\n    //      \n    function addDonatedPFList(address _addr) public {\n        donators[_addr].myDonatedPFList.push(msg.sender);\n    }\n\n    function addDonatedCFList(address _addr) public {\n        donators[_addr].myDonatedCFList.push(msg.sender);\n    }\n\n}\n",
  "sourcePath": "/Users/seon/Desktop/LikeLion_BCS/TOcO/Toco_contract/contracts/Administrator.sol",
  "compiler": {
    "name": "solc",
    "version": "0.8.17+commit.8df45f5f.Emscripten.clang"
  },
  "schemaVersion": "3.4.11",
  "updatedAt": "2022-12-20T08:30:02.872Z",
  "networkType": "ethereum",
  "devdoc": {
    "kind": "dev",
    "methods": {},
    "version": 1
  },
  "userdoc": {
    "kind": "user",
    "methods": {},
    "version": 1
  }
}