{
  "contractName": "Administrator",
  "abi": [
    {
      "inputs": [],
      "stateMutability": "nonpayable",
      "type": "constructor"
    },
    {
      "stateMutability": "payable",
      "type": "receive",
      "payable": true
    },
    {
      "inputs": [
        {
          "internalType": "address",
          "name": "_addr",
          "type": "address"
        }
      ],
      "name": "setDonator",
      "outputs": [],
      "stateMutability": "nonpayable",
      "type": "function"
    },
    {
      "inputs": [
        {
          "internalType": "address",
          "name": "_addr",
          "type": "address"
        }
      ],
      "name": "getDonator",
      "outputs": [
        {
          "components": [
            {
              "internalType": "address",
              "name": "donatorAddr",
              "type": "address"
            },
            {
              "internalType": "string[]",
              "name": "myDonatedPFList",
              "type": "string[]"
            },
            {
              "internalType": "string[]",
              "name": "myDonatedCFList",
              "type": "string[]"
            }
          ],
          "internalType": "struct Administrator.Donator",
          "name": "",
          "type": "tuple"
        }
      ],
      "stateMutability": "view",
      "type": "function",
      "constant": true
    },
    {
      "inputs": [
        {
          "internalType": "address",
          "name": "_addr",
          "type": "address"
        },
        {
          "internalType": "string",
          "name": "_docId",
          "type": "string"
        }
      ],
      "name": "addDonatedPFList",
      "outputs": [],
      "stateMutability": "nonpayable",
      "type": "function"
    },
    {
      "inputs": [
        {
          "internalType": "address",
          "name": "_addr",
          "type": "address"
        },
        {
          "internalType": "string",
          "name": "_docId",
          "type": "string"
        }
      ],
      "name": "addDonatedCFList",
      "outputs": [],
      "stateMutability": "nonpayable",
      "type": "function"
    },
    {
      "inputs": [
        {
          "internalType": "address",
          "name": "_addr",
          "type": "address"
        }
      ],
      "name": "getDonatedPFList",
      "outputs": [
        {
          "internalType": "string[]",
          "name": "",
          "type": "string[]"
        }
      ],
      "stateMutability": "view",
      "type": "function",
      "constant": true
    },
    {
      "inputs": [
        {
          "internalType": "address",
          "name": "_addr",
          "type": "address"
        }
      ],
      "name": "getDonatedCFList",
      "outputs": [
        {
          "internalType": "string[]",
          "name": "",
          "type": "string[]"
        }
      ],
      "stateMutability": "view",
      "type": "function",
      "constant": true
    },
    {
      "inputs": [],
      "name": "getBalance",
      "outputs": [
        {
          "internalType": "uint256",
          "name": "",
          "type": "uint256"
        }
      ],
      "stateMutability": "view",
      "type": "function",
      "constant": true
    },
    {
      "inputs": [
        {
          "internalType": "address payable",
          "name": "_to",
          "type": "address"
        },
        {
          "internalType": "uint256",
          "name": "_amount",
          "type": "uint256"
        }
      ],
      "name": "withdrawMoney",
      "outputs": [],
      "stateMutability": "nonpayable",
      "type": "function"
    }
  ],
  "bytecode": "0x608060405234801561001057600080fd5b50336000806101000a81548173ffffffffffffffffffffffffffffffffffffffff021916908373ffffffffffffffffffffffffffffffffffffffff160217905550611301806100606000396000f3fe60806040526004361061007f5760003560e01c806360bf10861161004e57806360bf10861461014557806377c03b4614610182578063e7492565146101ab578063f274c897146101e857610086565b806312065fe01461008b57806323c4948c146100b657806325386b2a146100f357806352e1ea891461011c57610086565b3661008657005b600080fd5b34801561009757600080fd5b506100a0610211565b6040516100ad91906109f9565b60405180910390f35b3480156100c257600080fd5b506100dd60048036038101906100d89190610a86565b610219565b6040516100ea9190610c6b565b60405180910390f35b3480156100ff57600080fd5b5061011a60048036038101906101159190610dc2565b61047a565b005b34801561012857600080fd5b50610143600480360381019061013e9190610a86565b6104f3565b005b34801561015157600080fd5b5061016c60048036038101906101679190610a86565b61060e565b6040516101799190610ea4565b60405180910390f35b34801561018e57600080fd5b506101a960048036038101906101a49190610dc2565b610729565b005b3480156101b757600080fd5b506101d260048036038101906101cd9190610a86565b6107a2565b6040516101df9190610ea4565b60405180910390f35b3480156101f457600080fd5b5061020f600480360381019061020a9190610f30565b6108bd565b005b600047905090565b6102216109a9565b600160008373ffffffffffffffffffffffffffffffffffffffff1673ffffffffffffffffffffffffffffffffffffffff1681526020019081526020016000206040518060600160405290816000820160009054906101000a900473ffffffffffffffffffffffffffffffffffffffff1673ffffffffffffffffffffffffffffffffffffffff1673ffffffffffffffffffffffffffffffffffffffff16815260200160018201805480602002602001604051908101604052809291908181526020016000905b8282101561039257838290600052602060002001805461030590610f9f565b80601f016020809104026020016040519081016040528092919081815260200182805461033190610f9f565b801561037e5780601f106103535761010080835404028352916020019161037e565b820191906000526020600020905b81548152906001019060200180831161036157829003601f168201915b5050505050815260200190600101906102e6565b50505050815260200160028201805480602002602001604051908101604052809291908181526020016000905b8282101561046b5783829060005260206000200180546103de90610f9f565b80601f016020809104026020016040519081016040528092919081815260200182805461040a90610f9f565b80156104575780601f1061042c57610100808354040283529160200191610457565b820191906000526020600020905b81548152906001019060200180831161043a57829003601f168201915b5050505050815260200190600101906103bf565b50505050815250509050919050565b600160008373ffffffffffffffffffffffffffffffffffffffff1673ffffffffffffffffffffffffffffffffffffffff168152602001908152602001600020600201819080600181540180825580915050600190039060005260206000200160009091909190915090816104ee919061117c565b505050565b600073ffffffffffffffffffffffffffffffffffffffff16600160008373ffffffffffffffffffffffffffffffffffffffff1673ffffffffffffffffffffffffffffffffffffffff16815260200190815260200160002060000160009054906101000a900473ffffffffffffffffffffffffffffffffffffffff1673ffffffffffffffffffffffffffffffffffffffff160361060b5780600160008373ffffffffffffffffffffffffffffffffffffffff1673ffffffffffffffffffffffffffffffffffffffff16815260200190815260200160002060000160006101000a81548173ffffffffffffffffffffffffffffffffffffffff021916908373ffffffffffffffffffffffffffffffffffffffff1602179055505b50565b6060600160008373ffffffffffffffffffffffffffffffffffffffff1673ffffffffffffffffffffffffffffffffffffffff168152602001908152602001600020600101805480602002602001604051908101604052809291908181526020016000905b8282101561071e57838290600052602060002001805461069190610f9f565b80601f01602080910402602001604051908101604052809291908181526020018280546106bd90610f9f565b801561070a5780601f106106df5761010080835404028352916020019161070a565b820191906000526020600020905b8154815290600101906020018083116106ed57829003601f168201915b505050505081526020019060010190610672565b505050509050919050565b600160008373ffffffffffffffffffffffffffffffffffffffff1673ffffffffffffffffffffffffffffffffffffffff1681526020019081526020016000206001018190806001815401808255809150506001900390600052602060002001600090919091909150908161079d919061117c565b505050565b6060600160008373ffffffffffffffffffffffffffffffffffffffff1673ffffffffffffffffffffffffffffffffffffffff168152602001908152602001600020600201805480602002602001604051908101604052809291908181526020016000905b828210156108b257838290600052602060002001805461082590610f9f565b80601f016020809104026020016040519081016040528092919081815260200182805461085190610f9f565b801561089e5780601f106108735761010080835404028352916020019161089e565b820191906000526020600020905b81548152906001019060200180831161088157829003601f168201915b505050505081526020019060010190610806565b505050509050919050565b60008054906101000a900473ffffffffffffffffffffffffffffffffffffffff1673ffffffffffffffffffffffffffffffffffffffff163373ffffffffffffffffffffffffffffffffffffffff161461094b576040517f08c379a0000000000000000000000000000000000000000000000000000000008152600401610942906112ab565b60405180910390fd5b80610954610211565b1161095e57600080fd5b8173ffffffffffffffffffffffffffffffffffffffff166108fc829081150290604051600060405180830381858888f193505050501580156109a4573d6000803e3d6000fd5b505050565b6040518060600160405280600073ffffffffffffffffffffffffffffffffffffffff16815260200160608152602001606081525090565b6000819050919050565b6109f3816109e0565b82525050565b6000602082019050610a0e60008301846109ea565b92915050565b6000604051905090565b600080fd5b600080fd5b600073ffffffffffffffffffffffffffffffffffffffff82169050919050565b6000610a5382610a28565b9050919050565b610a6381610a48565b8114610a6e57600080fd5b50565b600081359050610a8081610a5a565b92915050565b600060208284031215610a9c57610a9b610a1e565b5b6000610aaa84828501610a71565b91505092915050565b610abc81610a48565b82525050565b600081519050919050565b600082825260208201905092915050565b6000819050602082019050919050565b600081519050919050565b600082825260208201905092915050565b60005b83811015610b28578082015181840152602081019050610b0d565b60008484015250505050565b6000601f19601f8301169050919050565b6000610b5082610aee565b610b5a8185610af9565b9350610b6a818560208601610b0a565b610b7381610b34565b840191505092915050565b6000610b8a8383610b45565b905092915050565b6000602082019050919050565b6000610baa82610ac2565b610bb48185610acd565b935083602082028501610bc685610ade565b8060005b85811015610c025784840389528151610be38582610b7e565b9450610bee83610b92565b925060208a01995050600181019050610bca565b50829750879550505050505092915050565b6000606083016000830151610c2c6000860182610ab3565b5060208301518482036020860152610c448282610b9f565b91505060408301518482036040860152610c5e8282610b9f565b9150508091505092915050565b60006020820190508181036000830152610c858184610c14565b905092915050565b600080fd5b600080fd5b7f4e487b7100000000000000000000000000000000000000000000000000000000600052604160045260246000fd5b610ccf82610b34565b810181811067ffffffffffffffff82111715610cee57610ced610c97565b5b80604052505050565b6000610d01610a14565b9050610d0d8282610cc6565b919050565b600067ffffffffffffffff821115610d2d57610d2c610c97565b5b610d3682610b34565b9050602081019050919050565b82818337600083830152505050565b6000610d65610d6084610d12565b610cf7565b905082815260208101848484011115610d8157610d80610c92565b5b610d8c848285610d43565b509392505050565b600082601f830112610da957610da8610c8d565b5b8135610db9848260208601610d52565b91505092915050565b60008060408385031215610dd957610dd8610a1e565b5b6000610de785828601610a71565b925050602083013567ffffffffffffffff811115610e0857610e07610a23565b5b610e1485828601610d94565b9150509250929050565b600082825260208201905092915050565b6000610e3a82610ac2565b610e448185610e1e565b935083602082028501610e5685610ade565b8060005b85811015610e925784840389528151610e738582610b7e565b9450610e7e83610b92565b925060208a01995050600181019050610e5a565b50829750879550505050505092915050565b60006020820190508181036000830152610ebe8184610e2f565b905092915050565b6000610ed182610a28565b9050919050565b610ee181610ec6565b8114610eec57600080fd5b50565b600081359050610efe81610ed8565b92915050565b610f0d816109e0565b8114610f1857600080fd5b50565b600081359050610f2a81610f04565b92915050565b60008060408385031215610f4757610f46610a1e565b5b6000610f5585828601610eef565b9250506020610f6685828601610f1b565b9150509250929050565b7f4e487b7100000000000000000000000000000000000000000000000000000000600052602260045260246000fd5b60006002820490506001821680610fb757607f821691505b602082108103610fca57610fc9610f70565b5b50919050565b60008190508160005260206000209050919050565b60006020601f8301049050919050565b600082821b905092915050565b6000600883026110327fffffffffffffffffffffffffffffffffffffffffffffffffffffffffffffffff82610ff5565b61103c8683610ff5565b95508019841693508086168417925050509392505050565b6000819050919050565b600061107961107461106f846109e0565b611054565b6109e0565b9050919050565b6000819050919050565b6110938361105e565b6110a761109f82611080565b848454611002565b825550505050565b600090565b6110bc6110af565b6110c781848461108a565b505050565b5b818110156110eb576110e06000826110b4565b6001810190506110cd565b5050565b601f8211156111305761110181610fd0565b61110a84610fe5565b81016020851015611119578190505b61112d61112585610fe5565b8301826110cc565b50505b505050565b600082821c905092915050565b600061115360001984600802611135565b1980831691505092915050565b600061116c8383611142565b9150826002028217905092915050565b61118582610aee565b67ffffffffffffffff81111561119e5761119d610c97565b5b6111a88254610f9f565b6111b38282856110ef565b600060209050601f8311600181146111e657600084156111d4578287015190505b6111de8582611160565b865550611246565b601f1984166111f486610fd0565b60005b8281101561121c578489015182556001820191506020850194506020810190506111f7565b868310156112395784890151611235601f891682611142565b8355505b6001600288020188555050505b505050505050565b600082825260208201905092915050565b7f4e6f74206f776e65720000000000000000000000000000000000000000000000600082015250565b600061129560098361124e565b91506112a08261125f565b602082019050919050565b600060208201905081810360008301526112c481611288565b905091905056fea2646970667358221220d481913f939dc45bb76244b3983ad857cecb3e820d9ebed83b71c31d9adcfc2964736f6c63430008110033",
  "immutableReferences": {},
  "source": "// SPDX-License-Identifier: MIT\n\npragma solidity >=0.4.22 <0.9.0;\n\nimport \"./ProjectFunding.sol\";\nimport \"./ChangesFunding.sol\";\n\ncontract Administrator {\n    address owner;\n\n    constructor() {\n        owner = msg.sender;\n    }\n\n    modifier onlyOwner() {\n        require(msg.sender == owner, \"Not owner\");\n        _;\n    }\n\n    struct Donator { //  \n        address donatorAddr;\n        string[] myDonatedPFList; //     (DB ID)\n        string[] myDonatedCFList; //     \n    }\n\n    mapping (address => Donator) donators; //  \n\n    //   ->      \n    function setDonator(address _addr) public {\n        if(donators[_addr].donatorAddr == address(0)) {\n            donators[_addr].donatorAddr = _addr;\n        }\n    }\n\n    function getDonator(address _addr) public view returns (Donator memory) {\n        return donators[_addr];\n    }\n\n    //      (ProjectFunding  )\n    function addDonatedPFList(address _addr, string memory _docId) public {\n        donators[_addr].myDonatedPFList.push(_docId);\n    }\n\n    function addDonatedCFList(address _addr, string memory _docId) public { // (ChangesFunding  )\n        donators[_addr].myDonatedCFList.push(_docId);\n    }\n\n    //      \n    function getDonatedPFList(address _addr) public view returns (string[] memory) {\n        return donators[_addr].myDonatedPFList;\n    }\n\n    function getDonatedCFList(address _addr) public view returns (string[] memory) {\n        return donators[_addr].myDonatedCFList;\n    }\n\n    //     \n    function getBalance() public view returns(uint) {\n        return address(this).balance;\n    }\n\n    //      ( owner)\n    function withdrawMoney(address payable _to, uint _amount) public onlyOwner {\n        require(getBalance() > _amount);\n        _to.transfer(_amount);\n    }\n\n    receive() external payable {} // admin  payable  \n}\n",
  "sourcePath": "/Users/seon/Desktop/LikeLion_BCS/TOcO/Toco_contract/contracts/Administrator.sol",
  "compiler": {
    "name": "solc",
    "version": "0.8.17+commit.8df45f5f.Emscripten.clang"
  },
  "schemaVersion": "3.4.11",
  "updatedAt": "2023-01-11T08:28:02.849Z",
  "networkType": "ethereum",
  "devdoc": {
    "kind": "dev",
    "methods": {},
    "version": 1
  },
  "userdoc": {
    "kind": "user",
    "methods": {},
    "version": 1
  }
}