{
  "contractName": "Administrator",
  "abi": [
    {
      "stateMutability": "payable",
      "type": "receive"
    },
    {
      "inputs": [
        {
          "internalType": "address",
          "name": "_addr",
          "type": "address"
        }
      ],
      "name": "setDonator",
      "outputs": [],
      "stateMutability": "nonpayable",
      "type": "function"
    },
    {
      "inputs": [
        {
          "internalType": "address",
          "name": "_addr",
          "type": "address"
        }
      ],
      "name": "getDonator",
      "outputs": [
        {
          "components": [
            {
              "internalType": "address",
              "name": "donatorAddr",
              "type": "address"
            },
            {
              "internalType": "address[]",
              "name": "myDonatedPFList",
              "type": "address[]"
            },
            {
              "internalType": "address[]",
              "name": "myDonatedCFList",
              "type": "address[]"
            }
          ],
          "internalType": "struct Administrator.Donator",
          "name": "",
          "type": "tuple"
        }
      ],
      "stateMutability": "view",
      "type": "function"
    },
    {
      "inputs": [
        {
          "internalType": "address",
          "name": "_addr",
          "type": "address"
        }
      ],
      "name": "addDonatedPFList",
      "outputs": [],
      "stateMutability": "nonpayable",
      "type": "function"
    },
    {
      "inputs": [
        {
          "internalType": "address",
          "name": "_addr",
          "type": "address"
        }
      ],
      "name": "addDonatedCFList",
      "outputs": [],
      "stateMutability": "nonpayable",
      "type": "function"
    },
    {
      "inputs": [
        {
          "internalType": "address",
          "name": "_addr",
          "type": "address"
        }
      ],
      "name": "getDonatedPFList",
      "outputs": [
        {
          "internalType": "address[]",
          "name": "",
          "type": "address[]"
        }
      ],
      "stateMutability": "view",
      "type": "function"
    }
  ],
  "bytecode": "0x608060405234801561001057600080fd5b50610910806100206000396000f3fe60806040526004361061004e5760003560e01c806323c4948c1461005a57806352e1ea891461009757806360bf1086146100c0578063d38150dd146100fd578063d63b0f031461012657610055565b3661005557005b600080fd5b34801561006657600080fd5b50610081600480360381019061007c91906106e5565b61014f565b60405161008e9190610827565b60405180910390f35b3480156100a357600080fd5b506100be60048036038101906100b991906106e5565b610319565b005b3480156100cc57600080fd5b506100e760048036038101906100e291906106e5565b610432565b6040516100f491906108b8565b60405180910390f35b34801561010957600080fd5b50610124600480360381019061011f91906106e5565b610501565b005b34801561013257600080fd5b5061014d600480360381019061014891906106e5565b6105a6565b005b61015761064b565b6000808373ffffffffffffffffffffffffffffffffffffffff1673ffffffffffffffffffffffffffffffffffffffff1681526020019081526020016000206040518060600160405290816000820160009054906101000a900473ffffffffffffffffffffffffffffffffffffffff1673ffffffffffffffffffffffffffffffffffffffff1673ffffffffffffffffffffffffffffffffffffffff1681526020016001820180548060200260200160405190810160405280929190818152602001828054801561027b57602002820191906000526020600020905b8160009054906101000a900473ffffffffffffffffffffffffffffffffffffffff1673ffffffffffffffffffffffffffffffffffffffff1681526020019060010190808311610231575b505050505081526020016002820180548060200260200160405190810160405280929190818152602001828054801561030957602002820191906000526020600020905b8160009054906101000a900473ffffffffffffffffffffffffffffffffffffffff1673ffffffffffffffffffffffffffffffffffffffff16815260200190600101908083116102bf575b5050505050815250509050919050565b600073ffffffffffffffffffffffffffffffffffffffff166000808373ffffffffffffffffffffffffffffffffffffffff1673ffffffffffffffffffffffffffffffffffffffff16815260200190815260200160002060000160009054906101000a900473ffffffffffffffffffffffffffffffffffffffff1673ffffffffffffffffffffffffffffffffffffffff160361042f57806000808373ffffffffffffffffffffffffffffffffffffffff1673ffffffffffffffffffffffffffffffffffffffff16815260200190815260200160002060000160006101000a81548173ffffffffffffffffffffffffffffffffffffffff021916908373ffffffffffffffffffffffffffffffffffffffff1602179055505b50565b60606000808373ffffffffffffffffffffffffffffffffffffffff1673ffffffffffffffffffffffffffffffffffffffff1681526020019081526020016000206001018054806020026020016040519081016040528092919081815260200182805480156104f557602002820191906000526020600020905b8160009054906101000a900473ffffffffffffffffffffffffffffffffffffffff1673ffffffffffffffffffffffffffffffffffffffff16815260200190600101908083116104ab575b50505050509050919050565b6000808273ffffffffffffffffffffffffffffffffffffffff1673ffffffffffffffffffffffffffffffffffffffff168152602001908152602001600020600201339080600181540180825580915050600190039060005260206000200160009091909190916101000a81548173ffffffffffffffffffffffffffffffffffffffff021916908373ffffffffffffffffffffffffffffffffffffffff16021790555050565b6000808273ffffffffffffffffffffffffffffffffffffffff1673ffffffffffffffffffffffffffffffffffffffff168152602001908152602001600020600101339080600181540180825580915050600190039060005260206000200160009091909190916101000a81548173ffffffffffffffffffffffffffffffffffffffff021916908373ffffffffffffffffffffffffffffffffffffffff16021790555050565b6040518060600160405280600073ffffffffffffffffffffffffffffffffffffffff16815260200160608152602001606081525090565b600080fd5b600073ffffffffffffffffffffffffffffffffffffffff82169050919050565b60006106b282610687565b9050919050565b6106c2816106a7565b81146106cd57600080fd5b50565b6000813590506106df816106b9565b92915050565b6000602082840312156106fb576106fa610682565b5b6000610709848285016106d0565b91505092915050565b61071b816106a7565b82525050565b600081519050919050565b600082825260208201905092915050565b6000819050602082019050919050565b60006107598383610712565b60208301905092915050565b6000602082019050919050565b600061077d82610721565b610787818561072c565b93506107928361073d565b8060005b838110156107c35781516107aa888261074d565b97506107b583610765565b925050600181019050610796565b5085935050505092915050565b60006060830160008301516107e86000860182610712565b50602083015184820360208601526108008282610772565b9150506040830151848203604086015261081a8282610772565b9150508091505092915050565b6000602082019050818103600083015261084181846107d0565b905092915050565b600082825260208201905092915050565b600061086582610721565b61086f8185610849565b935061087a8361073d565b8060005b838110156108ab578151610892888261074d565b975061089d83610765565b92505060018101905061087e565b5085935050505092915050565b600060208201905081810360008301526108d2818461085a565b90509291505056fea2646970667358221220f96750bccdc09c5cdab89d613e1b85365dabb743f11cfc513f1735aa2420e8b264736f6c63430008110033",
  "immutableReferences": {},
  "source": "// SPDX-License-Identifier: MIT\n\npragma solidity >=0.4.22 <0.9.0;\n\nimport \"./ProjectFunding.sol\";\nimport \"./ChangesFunding.sol\";\n\ncontract Administrator {\n\n    struct Donator { //  \n        address donatorAddr;\n        address[] myDonatedPFList; //     \n        address[] myDonatedCFList; //     \n    }\n\n    mapping (address => Donator) donators; //  \n\n    //   ->      \n    function setDonator(address _addr) public {\n        if(donators[_addr].donatorAddr == address(0)) {\n            donators[_addr].donatorAddr = _addr;\n        }\n    }\n\n    function getDonator(address _addr) public view returns (Donator memory) {\n        return donators[_addr];\n    }\n\n    //      (ProjectFunding  )\n    function addDonatedPFList(address _addr) public {\n        donators[_addr].myDonatedPFList.push(msg.sender);\n    }\n\n    function addDonatedCFList(address _addr) public { // (ChangesFunding  )\n        donators[_addr].myDonatedCFList.push(msg.sender);\n    }\n\n    //      \n    function getDonatedPFList(address _addr) public view returns (address[] memory) {\n        return donators[_addr].myDonatedPFList;\n    }\n\n    receive() external payable {} // admin  payable  \n}\n",
  "sourcePath": "/Users/seon/Desktop/LikeLion_BCS/TOcO/Toco_contract/contracts/Administrator.sol",
  "compiler": {
    "name": "solc",
    "version": "0.8.17+commit.8df45f5f.Emscripten.clang"
  },
  "schemaVersion": "3.4.11",
  "updatedAt": "2023-01-06T16:55:55.554Z",
  "devdoc": {
    "kind": "dev",
    "methods": {},
    "version": 1
  },
  "userdoc": {
    "kind": "user",
    "methods": {},
    "version": 1
  }
}