{
  "contractName": "ChangesFunding",
  "abi": [
    {
      "inputs": [
        {
          "internalType": "address",
          "name": "_adminAddr",
          "type": "address"
        }
      ],
      "stateMutability": "nonpayable",
      "type": "constructor"
    },
    {
      "inputs": [],
      "name": "admin",
      "outputs": [
        {
          "internalType": "contract Administrator",
          "name": "",
          "type": "address"
        }
      ],
      "stateMutability": "view",
      "type": "function",
      "constant": true
    },
    {
      "inputs": [],
      "name": "newFunding",
      "outputs": [
        {
          "internalType": "string",
          "name": "fundingName",
          "type": "string"
        },
        {
          "internalType": "uint256",
          "name": "targetAmount",
          "type": "uint256"
        },
        {
          "internalType": "uint256",
          "name": "currentAmount",
          "type": "uint256"
        },
        {
          "internalType": "uint256",
          "name": "fundingStartDate",
          "type": "uint256"
        },
        {
          "internalType": "uint256",
          "name": "fundingEndDate",
          "type": "uint256"
        }
      ],
      "stateMutability": "view",
      "type": "function",
      "constant": true
    },
    {
      "inputs": [],
      "name": "owner",
      "outputs": [
        {
          "internalType": "address",
          "name": "",
          "type": "address"
        }
      ],
      "stateMutability": "view",
      "type": "function",
      "constant": true
    },
    {
      "inputs": [
        {
          "internalType": "string",
          "name": "_fundingName",
          "type": "string"
        },
        {
          "internalType": "uint256",
          "name": "_targetAmount",
          "type": "uint256"
        },
        {
          "internalType": "uint256",
          "name": "_fundingStartDate",
          "type": "uint256"
        },
        {
          "internalType": "uint256",
          "name": "_fundingEndDate",
          "type": "uint256"
        }
      ],
      "name": "createFunding",
      "outputs": [],
      "stateMutability": "nonpayable",
      "type": "function"
    },
    {
      "inputs": [],
      "name": "getFunding",
      "outputs": [
        {
          "components": [
            {
              "internalType": "string",
              "name": "fundingName",
              "type": "string"
            },
            {
              "internalType": "uint256",
              "name": "targetAmount",
              "type": "uint256"
            },
            {
              "internalType": "uint256",
              "name": "currentAmount",
              "type": "uint256"
            },
            {
              "internalType": "uint256",
              "name": "fundingStartDate",
              "type": "uint256"
            },
            {
              "internalType": "uint256",
              "name": "fundingEndDate",
              "type": "uint256"
            }
          ],
          "internalType": "struct ChangesFunding.funding",
          "name": "",
          "type": "tuple"
        }
      ],
      "stateMutability": "view",
      "type": "function",
      "constant": true
    },
    {
      "inputs": [],
      "name": "getBlockNumber",
      "outputs": [
        {
          "internalType": "uint256",
          "name": "",
          "type": "uint256"
        }
      ],
      "stateMutability": "view",
      "type": "function",
      "constant": true
    },
    {
      "inputs": [],
      "name": "donate",
      "outputs": [],
      "stateMutability": "payable",
      "type": "function",
      "payable": true
    },
    {
      "inputs": [],
      "name": "setDonatePerson",
      "outputs": [],
      "stateMutability": "nonpayable",
      "type": "function"
    },
    {
      "inputs": [
        {
          "internalType": "address",
          "name": "_a",
          "type": "address"
        }
      ],
      "name": "getDonatePerson",
      "outputs": [
        {
          "internalType": "address",
          "name": "",
          "type": "address"
        },
        {
          "internalType": "uint256",
          "name": "",
          "type": "uint256"
        },
        {
          "internalType": "uint256",
          "name": "",
          "type": "uint256"
        }
      ],
      "stateMutability": "view",
      "type": "function",
      "constant": true
    },
    {
      "inputs": [],
      "name": "getBalance",
      "outputs": [
        {
          "internalType": "uint256",
          "name": "",
          "type": "uint256"
        }
      ],
      "stateMutability": "view",
      "type": "function",
      "constant": true
    },
    {
      "inputs": [
        {
          "internalType": "address payable",
          "name": "_to",
          "type": "address"
        }
      ],
      "name": "withdrawMoney",
      "outputs": [],
      "stateMutability": "nonpayable",
      "type": "function"
    }
  ],
  "bytecode": "0x60806040523480156200001157600080fd5b50604051620016a6380380620016a6833981810160405281019062000037919062000129565b33600160006101000a81548173ffffffffffffffffffffffffffffffffffffffff021916908373ffffffffffffffffffffffffffffffffffffffff160217905550806000806101000a81548173ffffffffffffffffffffffffffffffffffffffff021916908373ffffffffffffffffffffffffffffffffffffffff160217905550506200015b565b600080fd5b600073ffffffffffffffffffffffffffffffffffffffff82169050919050565b6000620000f182620000c4565b9050919050565b6200010381620000e4565b81146200010f57600080fd5b50565b6000815190506200012381620000f8565b92915050565b600060208284031215620001425762000141620000bf565b5b6000620001528482850162000112565b91505092915050565b61153b806200016b6000396000f3fe60806040526004361061009c5760003560e01c806362786e171161006457806362786e171461018a5780638da5cb5b146101b3578063b50d4a05146101de578063ed366b2d146101f5578063ed88c68e14610224578063f851a4401461022e5761009c565b806312065fe0146100a157806312af5f98146100cc5780632f971029146100f757806342cbb15c14610120578063497aa1f71461014b575b600080fd5b3480156100ad57600080fd5b506100b6610259565b6040516100c391906109c9565b60405180910390f35b3480156100d857600080fd5b506100e1610261565b6040516100ee9190610af9565b60405180910390f35b34801561010357600080fd5b5061011e60048036038101906101199190610b8d565b610335565b005b34801561012c57600080fd5b50610135610416565b60405161014291906109c9565b60405180910390f35b34801561015757600080fd5b50610172600480360381019061016d9190610bf8565b61041e565b60405161018193929190610c34565b60405180910390f35b34801561019657600080fd5b506101b160048036038101906101ac9190610dcc565b610519565b005b3480156101bf57600080fd5b506101c8610616565b6040516101d59190610e4f565b60405180910390f35b3480156101ea57600080fd5b506101f361063c565b005b34801561020157600080fd5b5061020a61070e565b60405161021b959493929190610eb4565b60405180910390f35b61022c6107ba565b005b34801561023a57600080fd5b5061024361095d565b6040516102509190610f6d565b60405180910390f35b600047905090565b610269610981565b60026040518060a001604052908160008201805461028690610fb7565b80601f01602080910402602001604051908101604052809291908181526020018280546102b290610fb7565b80156102ff5780601f106102d4576101008083540402835291602001916102ff565b820191906000526020600020905b8154815290600101906020018083116102e257829003601f168201915b50505050508152602001600182015481526020016002820154815260200160038201548152602001600482015481525050905090565b600160009054906101000a900473ffffffffffffffffffffffffffffffffffffffff1673ffffffffffffffffffffffffffffffffffffffff163373ffffffffffffffffffffffffffffffffffffffff16146103c5576040517f08c379a00000000000000000000000000000000000000000000000000000000081526004016103bc90611034565b60405180910390fd5b8073ffffffffffffffffffffffffffffffffffffffff166108fc6103e7610259565b9081150290604051600060405180830381858888f19350505050158015610412573d6000803e3d6000fd5b5050565b600043905090565b6000806000600860008573ffffffffffffffffffffffffffffffffffffffff1673ffffffffffffffffffffffffffffffffffffffff16815260200190815260200160002060000160009054906101000a900473ffffffffffffffffffffffffffffffffffffffff16600860008673ffffffffffffffffffffffffffffffffffffffff1673ffffffffffffffffffffffffffffffffffffffff16815260200190815260200160002060010154600860008773ffffffffffffffffffffffffffffffffffffffff1673ffffffffffffffffffffffffffffffffffffffff168152602001908152602001600020600201549250925092509193909250565b6040518060a0016040528085815260200184815260200160008152602001838152602001828152506002600082015181600001908161055891906111f6565b506020820151816001015560408201518160020155606082015181600301556080820151816004015590505060008054906101000a900473ffffffffffffffffffffffffffffffffffffffff1673ffffffffffffffffffffffffffffffffffffffff16632deab76960026040518263ffffffff1660e01b81526004016105de9190611420565b600060405180830381600087803b1580156105f857600080fd5b505af115801561060c573d6000803e3d6000fd5b5050505050505050565b600160009054906101000a900473ffffffffffffffffffffffffffffffffffffffff1681565b60405180606001604052803373ffffffffffffffffffffffffffffffffffffffff168152602001600081526020016000815250600860003373ffffffffffffffffffffffffffffffffffffffff1673ffffffffffffffffffffffffffffffffffffffff16815260200190815260200160002060008201518160000160006101000a81548173ffffffffffffffffffffffffffffffffffffffff021916908373ffffffffffffffffffffffffffffffffffffffff1602179055506020820151816001015560408201518160020155905050565b600280600001805461071f90610fb7565b80601f016020809104026020016040519081016040528092919081815260200182805461074b90610fb7565b80156107985780601f1061076d57610100808354040283529160200191610798565b820191906000526020600020905b81548152906001019060200180831161077b57829003601f168201915b5050505050908060010154908060020154908060030154908060040154905085565b600034116107c757600080fd5b600260030154421180156107df575060026004015442105b6107e857600080fd5b34600960003373ffffffffffffffffffffffffffffffffffffffff1673ffffffffffffffffffffffffffffffffffffffff16815260200190815260200160002060008282546108379190611471565b925050819055506000662386f26fc100003461085391906114d4565b90506000600860003373ffffffffffffffffffffffffffffffffffffffff1673ffffffffffffffffffffffffffffffffffffffff16815260200190815260200160002060010154036108a8576108a761063c565b5b80600860003373ffffffffffffffffffffffffffffffffffffffff1673ffffffffffffffffffffffffffffffffffffffff16815260200190815260200160002060010160008282546108fa9190611471565b9250508190555034600860003373ffffffffffffffffffffffffffffffffffffffff1673ffffffffffffffffffffffffffffffffffffffff16815260200190815260200160002060020160008282546109539190611471565b9250508190555050565b60008054906101000a900473ffffffffffffffffffffffffffffffffffffffff1681565b6040518060a0016040528060608152602001600081526020016000815260200160008152602001600081525090565b6000819050919050565b6109c3816109b0565b82525050565b60006020820190506109de60008301846109ba565b92915050565b600081519050919050565b600082825260208201905092915050565b60005b83811015610a1e578082015181840152602081019050610a03565b60008484015250505050565b6000601f19601f8301169050919050565b6000610a46826109e4565b610a5081856109ef565b9350610a60818560208601610a00565b610a6981610a2a565b840191505092915050565b610a7d816109b0565b82525050565b600060a0830160008301518482036000860152610aa08282610a3b565b9150506020830151610ab56020860182610a74565b506040830151610ac86040860182610a74565b506060830151610adb6060860182610a74565b506080830151610aee6080860182610a74565b508091505092915050565b60006020820190508181036000830152610b138184610a83565b905092915050565b6000604051905090565b600080fd5b600080fd5b600073ffffffffffffffffffffffffffffffffffffffff82169050919050565b6000610b5a82610b2f565b9050919050565b610b6a81610b4f565b8114610b7557600080fd5b50565b600081359050610b8781610b61565b92915050565b600060208284031215610ba357610ba2610b25565b5b6000610bb184828501610b78565b91505092915050565b6000610bc582610b2f565b9050919050565b610bd581610bba565b8114610be057600080fd5b50565b600081359050610bf281610bcc565b92915050565b600060208284031215610c0e57610c0d610b25565b5b6000610c1c84828501610be3565b91505092915050565b610c2e81610bba565b82525050565b6000606082019050610c496000830186610c25565b610c5660208301856109ba565b610c6360408301846109ba565b949350505050565b600080fd5b600080fd5b7f4e487b7100000000000000000000000000000000000000000000000000000000600052604160045260246000fd5b610cad82610a2a565b810181811067ffffffffffffffff82111715610ccc57610ccb610c75565b5b80604052505050565b6000610cdf610b1b565b9050610ceb8282610ca4565b919050565b600067ffffffffffffffff821115610d0b57610d0a610c75565b5b610d1482610a2a565b9050602081019050919050565b82818337600083830152505050565b6000610d43610d3e84610cf0565b610cd5565b905082815260208101848484011115610d5f57610d5e610c70565b5b610d6a848285610d21565b509392505050565b600082601f830112610d8757610d86610c6b565b5b8135610d97848260208601610d30565b91505092915050565b610da9816109b0565b8114610db457600080fd5b50565b600081359050610dc681610da0565b92915050565b60008060008060808587031215610de657610de5610b25565b5b600085013567ffffffffffffffff811115610e0457610e03610b2a565b5b610e1087828801610d72565b9450506020610e2187828801610db7565b9350506040610e3287828801610db7565b9250506060610e4387828801610db7565b91505092959194509250565b6000602082019050610e646000830184610c25565b92915050565b600082825260208201905092915050565b6000610e86826109e4565b610e908185610e6a565b9350610ea0818560208601610a00565b610ea981610a2a565b840191505092915050565b600060a0820190508181036000830152610ece8188610e7b565b9050610edd60208301876109ba565b610eea60408301866109ba565b610ef760608301856109ba565b610f0460808301846109ba565b9695505050505050565b6000819050919050565b6000610f33610f2e610f2984610b2f565b610f0e565b610b2f565b9050919050565b6000610f4582610f18565b9050919050565b6000610f5782610f3a565b9050919050565b610f6781610f4c565b82525050565b6000602082019050610f826000830184610f5e565b92915050565b7f4e487b7100000000000000000000000000000000000000000000000000000000600052602260045260246000fd5b60006002820490506001821680610fcf57607f821691505b602082108103610fe257610fe1610f88565b5b50919050565b7f4e6f74206f776e65720000000000000000000000000000000000000000000000600082015250565b600061101e600983610e6a565b915061102982610fe8565b602082019050919050565b6000602082019050818103600083015261104d81611011565b9050919050565b60008190508160005260206000209050919050565b60006020601f8301049050919050565b600082821b905092915050565b6000600883026110b67fffffffffffffffffffffffffffffffffffffffffffffffffffffffffffffffff82611079565b6110c08683611079565b95508019841693508086168417925050509392505050565b60006110f36110ee6110e9846109b0565b610f0e565b6109b0565b9050919050565b6000819050919050565b61110d836110d8565b611121611119826110fa565b848454611086565b825550505050565b600090565b611136611129565b611141818484611104565b505050565b5b818110156111655761115a60008261112e565b600181019050611147565b5050565b601f8211156111aa5761117b81611054565b61118484611069565b81016020851015611193578190505b6111a761119f85611069565b830182611146565b50505b505050565b600082821c905092915050565b60006111cd600019846008026111af565b1980831691505092915050565b60006111e683836111bc565b9150826002028217905092915050565b6111ff826109e4565b67ffffffffffffffff81111561121857611217610c75565b5b6112228254610fb7565b61122d828285611169565b600060209050601f831160018114611260576000841561124e578287015190505b61125885826111da565b8655506112c0565b601f19841661126e86611054565b60005b8281101561129657848901518255600182019150602085019450602081019050611271565b868310156112b357848901516112af601f8916826111bc565b8355505b6001600288020188555050505b505050505050565b600081546112d581610fb7565b6112df81866109ef565b945060018216600081146112fa576001811461131057611343565b60ff198316865281151560200286019350611343565b61131985611054565b60005b8381101561133b5781548189015260018201915060208101905061131c565b808801955050505b50505092915050565b60008160001c9050919050565b6000819050919050565b60006113766113718361134c565b611359565b9050919050565b600060a083016000808401858303600087015261139a83826112c8565b925050600184015490506113ad81611363565b6113ba6020870182610a74565b50600284015490506113cb81611363565b6113d86040870182610a74565b50600384015490506113e981611363565b6113f66060870182610a74565b506004840154905061140781611363565b6114146080870182610a74565b50819250505092915050565b6000602082019050818103600083015261143a818461137d565b905092915050565b7f4e487b7100000000000000000000000000000000000000000000000000000000600052601160045260246000fd5b600061147c826109b0565b9150611487836109b0565b925082820190508082111561149f5761149e611442565b5b92915050565b7f4e487b7100000000000000000000000000000000000000000000000000000000600052601260045260246000fd5b60006114df826109b0565b91506114ea836109b0565b9250826114fa576114f96114a5565b5b82820490509291505056fea26469706673582212200d84ea14ac62f3fe93502c062dc350509b0cb0346f68b8c115480e17fa18ab7564736f6c63430008110033",
  "immutableReferences": {},
  "source": "// SPDX-License-Identifier: MIT\n\npragma solidity >=0.4.22 <0.9.0;\n\nimport \"./Administrator.sol\";\n\ncontract ChangesFunding {\n  //     \n    //   (     - ,       )\n    //  \n    Administrator public admin;\n\n    address public owner;\n\n    constructor(address _adminAddr) {\n        owner = msg.sender;\n        admin = Administrator(_adminAddr);\n    }\n\n    modifier onlyOwner() {\n        require(msg.sender == owner, \"Not owner\");\n        _;\n    }\n    \n    struct funding {\n        string fundingName; //  \n        uint targetAmount; //  \n        uint currentAmount; //  \n        uint fundingStartDate; //  \n        uint fundingEndDate; //   \n    }\n\n    funding public newFunding; // funding  newFunding \n\n    //  \n    struct users {\n        address userAddress; //  \n        uint tickets; //  \n        uint donateAmount; // \n    }\n\n    mapping(string => funding) Funding;\n    mapping(address => users) Users;\n  \n    //  \n    function createFunding( //     \n        string memory _fundingName, //  \n        uint _targetAmount, //  \n        uint _fundingStartDate, //   \n        uint _fundingEndDate //   \n    ) public {\n        newFunding = funding({\n            fundingName: _fundingName,\n            targetAmount: _targetAmount,\n            currentAmount: 0,\n            fundingStartDate: _fundingStartDate,\n            fundingEndDate: _fundingEndDate\n        });\n        //     \n        admin.registerCFunding(newFunding);\n    }\n\n    //     -> tuple  FE  ...??\n    function getFunding() public view returns (funding memory) {\n        return newFunding;\n    }\n\n    function getBlockNumber() public view returns(uint) {\n        return block.number ;\n    }\n    \n    mapping(address => uint) userBalance;\n\n    //  \n    function donate() public payable {\n        require(msg.value > 0);\n        //        \n        require(block.timestamp > newFunding.fundingStartDate && block.timestamp < newFunding.fundingEndDate);\n        \n        userBalance[msg.sender] += msg.value;\n        uint ticket = msg.value/10**16; //  \n        \n        if(Users[msg.sender].tickets == 0) { //    \n            setDonatePerson(); // \n        } \n        Users[msg.sender].tickets += ticket; //  \n        Users[msg.sender].donateAmount += msg.value; //  \n    }\n\n    //  \n    function setDonatePerson() public {\n        Users[msg.sender] = users(msg.sender, 0, 0);\n    }\n\n    //  \n    function getDonatePerson(address _a) public view returns(address, uint, uint) {\n        return (Users[_a].userAddress, Users[_a].tickets, Users[_a].donateAmount);\n    }\n\n    //     \n    function getBalance() public view returns(uint) {\n        return address(this).balance;\n    }\n\n    //      ( owner)\n    function withdrawMoney(address payable _to) public onlyOwner {\n        _to.transfer(getBalance());\n    }\n}\n",
  "sourcePath": "/Users/seon/Desktop/LikeLion_BCS/TOcO/Toco_contract/contracts/ChangesFunding.sol",
  "compiler": {
    "name": "solc",
    "version": "0.8.17+commit.8df45f5f.Emscripten.clang"
  },
  "schemaVersion": "3.4.11",
  "updatedAt": "2022-12-20T08:33:26.356Z",
  "networkType": "ethereum",
  "devdoc": {
    "kind": "dev",
    "methods": {},
    "version": 1
  },
  "userdoc": {
    "kind": "user",
    "methods": {},
    "version": 1
  }
}