{
  "contractName": "ProjectFunding",
  "abi": [
    {
      "inputs": [
        {
          "internalType": "address",
          "name": "_adminAddr",
          "type": "address"
        }
      ],
      "stateMutability": "nonpayable",
      "type": "constructor"
    },
    {
      "inputs": [],
      "name": "admin",
      "outputs": [
        {
          "internalType": "contract Administrator",
          "name": "",
          "type": "address"
        }
      ],
      "stateMutability": "view",
      "type": "function",
      "constant": true
    },
    {
      "inputs": [
        {
          "internalType": "address",
          "name": "",
          "type": "address"
        }
      ],
      "name": "donateList",
      "outputs": [
        {
          "internalType": "uint256",
          "name": "",
          "type": "uint256"
        }
      ],
      "stateMutability": "view",
      "type": "function",
      "constant": true
    },
    {
      "inputs": [],
      "name": "newFunding",
      "outputs": [
        {
          "internalType": "string",
          "name": "fundingName",
          "type": "string"
        },
        {
          "internalType": "uint256",
          "name": "targetAmount",
          "type": "uint256"
        },
        {
          "internalType": "uint256",
          "name": "currentAmount",
          "type": "uint256"
        },
        {
          "internalType": "uint256",
          "name": "fundingStartDate",
          "type": "uint256"
        },
        {
          "internalType": "uint256",
          "name": "fundingEndDate",
          "type": "uint256"
        }
      ],
      "stateMutability": "view",
      "type": "function",
      "constant": true
    },
    {
      "inputs": [
        {
          "internalType": "string",
          "name": "_fundingName",
          "type": "string"
        },
        {
          "internalType": "uint256",
          "name": "_targetAmount",
          "type": "uint256"
        },
        {
          "internalType": "uint256",
          "name": "_fundingStartDate",
          "type": "uint256"
        },
        {
          "internalType": "uint256",
          "name": "_fundingEndDate",
          "type": "uint256"
        }
      ],
      "name": "setFunding",
      "outputs": [],
      "stateMutability": "nonpayable",
      "type": "function"
    },
    {
      "inputs": [],
      "name": "getFunding",
      "outputs": [
        {
          "components": [
            {
              "internalType": "string",
              "name": "fundingName",
              "type": "string"
            },
            {
              "internalType": "uint256",
              "name": "targetAmount",
              "type": "uint256"
            },
            {
              "internalType": "uint256",
              "name": "currentAmount",
              "type": "uint256"
            },
            {
              "internalType": "uint256",
              "name": "fundingStartDate",
              "type": "uint256"
            },
            {
              "internalType": "uint256",
              "name": "fundingEndDate",
              "type": "uint256"
            }
          ],
          "internalType": "struct ProjectFunding.funding",
          "name": "",
          "type": "tuple"
        }
      ],
      "stateMutability": "view",
      "type": "function",
      "constant": true
    },
    {
      "inputs": [
        {
          "internalType": "uint256",
          "name": "_amount",
          "type": "uint256"
        }
      ],
      "name": "donate",
      "outputs": [],
      "stateMutability": "payable",
      "type": "function",
      "payable": true
    },
    {
      "inputs": [],
      "name": "getBalance",
      "outputs": [
        {
          "internalType": "uint256",
          "name": "",
          "type": "uint256"
        }
      ],
      "stateMutability": "view",
      "type": "function",
      "constant": true
    },
    {
      "inputs": [
        {
          "internalType": "address payable",
          "name": "_to",
          "type": "address"
        }
      ],
      "name": "withdrawMoney",
      "outputs": [],
      "stateMutability": "nonpayable",
      "type": "function"
    }
  ],
  "bytecode": "0x60806040523480156200001157600080fd5b506040516200146338038062001463833981810160405281019062000037919062000129565b33600160006101000a81548173ffffffffffffffffffffffffffffffffffffffff021916908373ffffffffffffffffffffffffffffffffffffffff160217905550806000806101000a81548173ffffffffffffffffffffffffffffffffffffffff021916908373ffffffffffffffffffffffffffffffffffffffff160217905550506200015b565b600080fd5b600073ffffffffffffffffffffffffffffffffffffffff82169050919050565b6000620000f182620000c4565b9050919050565b6200010381620000e4565b81146200010f57600080fd5b50565b6000815190506200012381620000f8565b92915050565b600060208284031215620001425762000141620000bf565b5b6000620001528482850162000112565b91505092915050565b6112f8806200016b6000396000f3fe60806040526004361061007b5760003560e01c8063a7db25bc1161004e578063a7db25bc1461013c578063ed366b2d14610165578063f14faf6f14610194578063f851a440146101b05761007b565b806312065fe01461008057806312af5f98146100ab5780632f971029146100d6578063a70b12c8146100ff575b600080fd5b34801561008c57600080fd5b506100956101db565b6040516100a291906107ae565b60405180910390f35b3480156100b757600080fd5b506100c06101e3565b6040516100cd91906108de565b60405180910390f35b3480156100e257600080fd5b506100fd60048036038101906100f89190610972565b6102b7565b005b34801561010b57600080fd5b50610126600480360381019061012191906109dd565b610398565b60405161013391906107ae565b60405180910390f35b34801561014857600080fd5b50610163600480360381019061015e9190610b6b565b6103b0565b005b34801561017157600080fd5b5061017a6104c0565b60405161018b959493929190610c38565b60405180910390f35b6101ae60048036038101906101a99190610c92565b61056c565b005b3480156101bc57600080fd5b506101c5610742565b6040516101d29190610d1e565b60405180910390f35b600047905090565b6101eb610766565b60026040518060a001604052908160008201805461020890610d68565b80601f016020809104026020016040519081016040528092919081815260200182805461023490610d68565b80156102815780601f1061025657610100808354040283529160200191610281565b820191906000526020600020905b81548152906001019060200180831161026457829003601f168201915b50505050508152602001600182015481526020016002820154815260200160038201548152602001600482015481525050905090565b600160009054906101000a900473ffffffffffffffffffffffffffffffffffffffff1673ffffffffffffffffffffffffffffffffffffffff163373ffffffffffffffffffffffffffffffffffffffff1614610347576040517f08c379a000000000000000000000000000000000000000000000000000000000815260040161033e90610de5565b60405180910390fd5b8073ffffffffffffffffffffffffffffffffffffffff166108fc6103696101db565b9081150290604051600060405180830381858888f19350505050158015610394573d6000803e3d6000fd5b5050565b60076020528060005260406000206000915090505481565b6040518060a00160405280858152602001670de0b6b3a7640000856103d59190610e34565b81526020016000815260200183815260200182815250600260008201518160000190816104029190611018565b506020820151816001015560408201518160020155606082015181600301556080820151816004015590505060008054906101000a900473ffffffffffffffffffffffffffffffffffffffff1673ffffffffffffffffffffffffffffffffffffffff16639a1046f060026040518263ffffffff1660e01b81526004016104889190611242565b600060405180830381600087803b1580156104a257600080fd5b505af11580156104b6573d6000803e3d6000fd5b5050505050505050565b60028060000180546104d190610d68565b80601f01602080910402602001604051908101604052809291908181526020018280546104fd90610d68565b801561054a5780601f1061051f5761010080835404028352916020019161054a565b820191906000526020600020905b81548152906001019060200180831161052d57829003601f168201915b5050505050908060010154908060020154908060030154908060040154905085565b60003411801561058e5750670de0b6b3a76400008161058b9190610e34565b34145b61059757600080fd5b600260030154421180156105af575060026004015442105b6105b857600080fd5b80600760003373ffffffffffffffffffffffffffffffffffffffff1673ffffffffffffffffffffffffffffffffffffffff16815260200190815260200160002060008282546106079190611264565b92505081905550806002800160008282546106229190611264565b9250508190555060008054906101000a900473ffffffffffffffffffffffffffffffffffffffff1673ffffffffffffffffffffffffffffffffffffffff166352e1ea89336040518263ffffffff1660e01b815260040161068291906112a7565b600060405180830381600087803b15801561069c57600080fd5b505af11580156106b0573d6000803e3d6000fd5b5050505060008054906101000a900473ffffffffffffffffffffffffffffffffffffffff1673ffffffffffffffffffffffffffffffffffffffff1663d63b0f03336040518263ffffffff1660e01b815260040161070d91906112a7565b600060405180830381600087803b15801561072757600080fd5b505af115801561073b573d6000803e3d6000fd5b5050505050565b60008054906101000a900473ffffffffffffffffffffffffffffffffffffffff1681565b6040518060a0016040528060608152602001600081526020016000815260200160008152602001600081525090565b6000819050919050565b6107a881610795565b82525050565b60006020820190506107c3600083018461079f565b92915050565b600081519050919050565b600082825260208201905092915050565b60005b838110156108035780820151818401526020810190506107e8565b60008484015250505050565b6000601f19601f8301169050919050565b600061082b826107c9565b61083581856107d4565b93506108458185602086016107e5565b61084e8161080f565b840191505092915050565b61086281610795565b82525050565b600060a08301600083015184820360008601526108858282610820565b915050602083015161089a6020860182610859565b5060408301516108ad6040860182610859565b5060608301516108c06060860182610859565b5060808301516108d36080860182610859565b508091505092915050565b600060208201905081810360008301526108f88184610868565b905092915050565b6000604051905090565b600080fd5b600080fd5b600073ffffffffffffffffffffffffffffffffffffffff82169050919050565b600061093f82610914565b9050919050565b61094f81610934565b811461095a57600080fd5b50565b60008135905061096c81610946565b92915050565b6000602082840312156109885761098761090a565b5b60006109968482850161095d565b91505092915050565b60006109aa82610914565b9050919050565b6109ba8161099f565b81146109c557600080fd5b50565b6000813590506109d7816109b1565b92915050565b6000602082840312156109f3576109f261090a565b5b6000610a01848285016109c8565b91505092915050565b600080fd5b600080fd5b7f4e487b7100000000000000000000000000000000000000000000000000000000600052604160045260246000fd5b610a4c8261080f565b810181811067ffffffffffffffff82111715610a6b57610a6a610a14565b5b80604052505050565b6000610a7e610900565b9050610a8a8282610a43565b919050565b600067ffffffffffffffff821115610aaa57610aa9610a14565b5b610ab38261080f565b9050602081019050919050565b82818337600083830152505050565b6000610ae2610add84610a8f565b610a74565b905082815260208101848484011115610afe57610afd610a0f565b5b610b09848285610ac0565b509392505050565b600082601f830112610b2657610b25610a0a565b5b8135610b36848260208601610acf565b91505092915050565b610b4881610795565b8114610b5357600080fd5b50565b600081359050610b6581610b3f565b92915050565b60008060008060808587031215610b8557610b8461090a565b5b600085013567ffffffffffffffff811115610ba357610ba261090f565b5b610baf87828801610b11565b9450506020610bc087828801610b56565b9350506040610bd187828801610b56565b9250506060610be287828801610b56565b91505092959194509250565b600082825260208201905092915050565b6000610c0a826107c9565b610c148185610bee565b9350610c248185602086016107e5565b610c2d8161080f565b840191505092915050565b600060a0820190508181036000830152610c528188610bff565b9050610c61602083018761079f565b610c6e604083018661079f565b610c7b606083018561079f565b610c88608083018461079f565b9695505050505050565b600060208284031215610ca857610ca761090a565b5b6000610cb684828501610b56565b91505092915050565b6000819050919050565b6000610ce4610cdf610cda84610914565b610cbf565b610914565b9050919050565b6000610cf682610cc9565b9050919050565b6000610d0882610ceb565b9050919050565b610d1881610cfd565b82525050565b6000602082019050610d336000830184610d0f565b92915050565b7f4e487b7100000000000000000000000000000000000000000000000000000000600052602260045260246000fd5b60006002820490506001821680610d8057607f821691505b602082108103610d9357610d92610d39565b5b50919050565b7f4e6f74206f776e65720000000000000000000000000000000000000000000000600082015250565b6000610dcf600983610bee565b9150610dda82610d99565b602082019050919050565b60006020820190508181036000830152610dfe81610dc2565b9050919050565b7f4e487b7100000000000000000000000000000000000000000000000000000000600052601160045260246000fd5b6000610e3f82610795565b9150610e4a83610795565b9250828202610e5881610795565b91508282048414831517610e6f57610e6e610e05565b5b5092915050565b60008190508160005260206000209050919050565b60006020601f8301049050919050565b600082821b905092915050565b600060088302610ed87fffffffffffffffffffffffffffffffffffffffffffffffffffffffffffffffff82610e9b565b610ee28683610e9b565b95508019841693508086168417925050509392505050565b6000610f15610f10610f0b84610795565b610cbf565b610795565b9050919050565b6000819050919050565b610f2f83610efa565b610f43610f3b82610f1c565b848454610ea8565b825550505050565b600090565b610f58610f4b565b610f63818484610f26565b505050565b5b81811015610f8757610f7c600082610f50565b600181019050610f69565b5050565b601f821115610fcc57610f9d81610e76565b610fa684610e8b565b81016020851015610fb5578190505b610fc9610fc185610e8b565b830182610f68565b50505b505050565b600082821c905092915050565b6000610fef60001984600802610fd1565b1980831691505092915050565b60006110088383610fde565b9150826002028217905092915050565b611021826107c9565b67ffffffffffffffff81111561103a57611039610a14565b5b6110448254610d68565b61104f828285610f8b565b600060209050601f8311600181146110825760008415611070578287015190505b61107a8582610ffc565b8655506110e2565b601f19841661109086610e76565b60005b828110156110b857848901518255600182019150602085019450602081019050611093565b868310156110d557848901516110d1601f891682610fde565b8355505b6001600288020188555050505b505050505050565b600081546110f781610d68565b61110181866107d4565b9450600182166000811461111c576001811461113257611165565b60ff198316865281151560200286019350611165565b61113b85610e76565b60005b8381101561115d5781548189015260018201915060208101905061113e565b808801955050505b50505092915050565b60008160001c9050919050565b6000819050919050565b60006111986111938361116e565b61117b565b9050919050565b600060a08301600080840185830360008701526111bc83826110ea565b925050600184015490506111cf81611185565b6111dc6020870182610859565b50600284015490506111ed81611185565b6111fa6040870182610859565b506003840154905061120b81611185565b6112186060870182610859565b506004840154905061122981611185565b6112366080870182610859565b50819250505092915050565b6000602082019050818103600083015261125c818461119f565b905092915050565b600061126f82610795565b915061127a83610795565b925082820190508082111561129257611291610e05565b5b92915050565b6112a18161099f565b82525050565b60006020820190506112bc6000830184611298565b9291505056fea2646970667358221220462fad9411af98d49394cfba9bec1a024406df6b94bc31d340d8d218db8d709664736f6c63430008110033",
  "immutableReferences": {},
  "source": "// SPDX-License-Identifier: MIT\n\npragma solidity >=0.4.22 <0.9.0;\n\nimport \"./Administrator.sol\";\n\ncontract ProjectFunding {\n  \n    Administrator public admin;\n    address owner;\n\n    constructor(address _adminAddr) {\n        owner = msg.sender;\n        admin = Administrator(_adminAddr);\n    }\n\n    modifier onlyOwner() {\n        require(msg.sender == owner, \"Not owner\");\n        _;\n    }\n    \n    struct funding {\n        string fundingName; //  \n        uint targetAmount; //  \n        uint currentAmount; //  \n        uint fundingStartDate; //  (unix time) ) 12/18 22:00\n        uint fundingEndDate; //  (unix time) )  12/31 23:59\n    }   \n\n    funding public newFunding; // funding  newFunding \n    \n    //  \n    function setFunding( //     \n        string memory _fundingName, //  \n        uint _targetAmount, //   ->   \n        uint _fundingStartDate, \n        uint _fundingEndDate \n    ) public {\n        newFunding = funding({\n            fundingName: _fundingName,\n            targetAmount: _targetAmount * 10 ** 18,\n            currentAmount: 0,\n            fundingStartDate: _fundingStartDate,\n            fundingEndDate: _fundingEndDate\n        });\n\n        //     \n        admin.registerPFunding(newFunding);\n    }\n\n    //     -> tuple \n    function getFunding() public view returns (funding memory) {\n        return newFunding;\n    }\n\n    //  \n    mapping (address => uint) public donateList; //          \n\n    //   \n    function donate(uint _amount) public payable { //     \n        //  0 ,   \n        require(msg.value > 0 && msg.value == _amount * 10 ** 18);\n        //        \n        require(block.timestamp > newFunding.fundingStartDate && block.timestamp < newFunding.fundingEndDate);\n        // \n        donateList[msg.sender] += _amount;\n\n        //   currentAmount \n        newFunding.currentAmount += _amount;\n        // donator  \n        admin.setDonator(msg.sender);\n        admin.addDonatedPFList(msg.sender);\n    }\n\n    //     \n    function getBalance() public view returns(uint) {\n        return address(this).balance;\n    }\n\n    //      ( owner)\n    function withdrawMoney(address payable _to) public onlyOwner {\n        _to.transfer(getBalance());\n    }\n}\n",
  "sourcePath": "/Users/seon/Desktop/LikeLion_BCS/TOcO/Toco_contract/contracts/ProjectFunding.sol",
  "compiler": {
    "name": "solc",
    "version": "0.8.17+commit.8df45f5f.Emscripten.clang"
  },
  "schemaVersion": "3.4.11",
  "updatedAt": "2022-12-20T08:34:03.477Z",
  "networkType": "ethereum",
  "devdoc": {
    "kind": "dev",
    "methods": {},
    "version": 1
  },
  "userdoc": {
    "kind": "user",
    "methods": {},
    "version": 1
  }
}