{
  "contractName": "ProjectFunding",
  "abi": [
    {
      "inputs": [
        {
          "internalType": "address payable",
          "name": "_adminAddr",
          "type": "address"
        }
      ],
      "stateMutability": "nonpayable",
      "type": "constructor"
    },
    {
      "inputs": [],
      "name": "admin",
      "outputs": [
        {
          "internalType": "contract Administrator",
          "name": "",
          "type": "address"
        }
      ],
      "stateMutability": "view",
      "type": "function",
      "constant": true
    },
    {
      "inputs": [
        {
          "internalType": "address",
          "name": "",
          "type": "address"
        }
      ],
      "name": "donateList",
      "outputs": [
        {
          "internalType": "uint256",
          "name": "",
          "type": "uint256"
        }
      ],
      "stateMutability": "view",
      "type": "function",
      "constant": true
    },
    {
      "inputs": [],
      "name": "newFunding",
      "outputs": [
        {
          "internalType": "string",
          "name": "fundingName",
          "type": "string"
        },
        {
          "internalType": "uint256",
          "name": "fundingStartDate",
          "type": "uint256"
        },
        {
          "internalType": "uint256",
          "name": "fundingEndDate",
          "type": "uint256"
        }
      ],
      "stateMutability": "view",
      "type": "function",
      "constant": true
    },
    {
      "inputs": [
        {
          "internalType": "string",
          "name": "_fundingName",
          "type": "string"
        },
        {
          "internalType": "uint256",
          "name": "_fundingStartDate",
          "type": "uint256"
        },
        {
          "internalType": "uint256",
          "name": "_fundingEndDate",
          "type": "uint256"
        }
      ],
      "name": "setFunding",
      "outputs": [],
      "stateMutability": "nonpayable",
      "type": "function"
    },
    {
      "inputs": [
        {
          "internalType": "uint256",
          "name": "_fundingEndDate",
          "type": "uint256"
        }
      ],
      "name": "extendEndDate",
      "outputs": [],
      "stateMutability": "nonpayable",
      "type": "function"
    },
    {
      "inputs": [],
      "name": "getFunding",
      "outputs": [
        {
          "components": [
            {
              "internalType": "string",
              "name": "fundingName",
              "type": "string"
            },
            {
              "internalType": "uint256",
              "name": "fundingStartDate",
              "type": "uint256"
            },
            {
              "internalType": "uint256",
              "name": "fundingEndDate",
              "type": "uint256"
            }
          ],
          "internalType": "struct ProjectFunding.funding",
          "name": "",
          "type": "tuple"
        }
      ],
      "stateMutability": "view",
      "type": "function",
      "constant": true
    },
    {
      "inputs": [
        {
          "internalType": "uint256",
          "name": "_amount",
          "type": "uint256"
        }
      ],
      "name": "donate",
      "outputs": [],
      "stateMutability": "payable",
      "type": "function",
      "payable": true
    },
    {
      "inputs": [],
      "name": "getBalance",
      "outputs": [
        {
          "internalType": "uint256",
          "name": "",
          "type": "uint256"
        }
      ],
      "stateMutability": "view",
      "type": "function",
      "constant": true
    },
    {
      "inputs": [],
      "name": "getMyDonateAmount",
      "outputs": [
        {
          "internalType": "uint256",
          "name": "",
          "type": "uint256"
        }
      ],
      "stateMutability": "view",
      "type": "function",
      "constant": true
    },
    {
      "inputs": [
        {
          "internalType": "address payable",
          "name": "_to",
          "type": "address"
        }
      ],
      "name": "withdrawMoney",
      "outputs": [],
      "stateMutability": "nonpayable",
      "type": "function"
    }
  ],
  "bytecode": "0x60806040523480156200001157600080fd5b50604051620014283803806200142883398181016040528101906200003791906200016a565b33600160006101000a81548173ffffffffffffffffffffffffffffffffffffffff021916908373ffffffffffffffffffffffffffffffffffffffff160217905550806000806101000a81548173ffffffffffffffffffffffffffffffffffffffff021916908373ffffffffffffffffffffffffffffffffffffffff16021790555080600260006101000a81548173ffffffffffffffffffffffffffffffffffffffff021916908373ffffffffffffffffffffffffffffffffffffffff160217905550506200019c565b600080fd5b600073ffffffffffffffffffffffffffffffffffffffff82169050919050565b6000620001328262000105565b9050919050565b620001448162000125565b81146200015057600080fd5b50565b600081519050620001648162000139565b92915050565b60006020828403121562000183576200018262000100565b5b6000620001938482850162000153565b91505092915050565b61127c80620001ac6000396000f3fe6080604052600436106100915760003560e01c8063a70b12c811610059578063a70b12c814610167578063ed366b2d146101a4578063f14faf6f146101d1578063f851a440146101ed578063f8fd97c61461021857610091565b806312065fe01461009657806312af5f98146100c15780632f971029146100ec5780633ba76d29146101155780639a4e57501461013e575b600080fd5b3480156100a257600080fd5b506100ab610243565b6040516100b891906108a2565b60405180910390f35b3480156100cd57600080fd5b506100d661024b565b6040516100e391906109ac565b60405180910390f35b3480156100f857600080fd5b50610113600480360381019061010e9190610a40565b61030b565b005b34801561012157600080fd5b5061013c60048036038101906101379190610bce565b610474565b005b34801561014a57600080fd5b5061016560048036038101906101609190610c3d565b6104c3565b005b34801561017357600080fd5b5061018e60048036038101906101899190610ca8565b610560565b60405161019b91906108a2565b60405180910390f35b3480156101b057600080fd5b506101b9610578565b6040516101c893929190610d1f565b60405180910390f35b6101eb60048036038101906101e69190610c3d565b610618565b005b3480156101f957600080fd5b506102026107fd565b60405161020f9190610dbc565b60405180910390f35b34801561022457600080fd5b5061022d610821565b60405161023a91906108a2565b60405180910390f35b600047905090565b610253610868565b600360405180606001604052908160008201805461027090610e06565b80601f016020809104026020016040519081016040528092919081815260200182805461029c90610e06565b80156102e95780601f106102be576101008083540402835291602001916102e9565b820191906000526020600020905b8154815290600101906020018083116102cc57829003601f168201915b5050505050815260200160018201548152602001600282015481525050905090565b600160009054906101000a900473ffffffffffffffffffffffffffffffffffffffff1673ffffffffffffffffffffffffffffffffffffffff163373ffffffffffffffffffffffffffffffffffffffff161461039b576040517f08c379a000000000000000000000000000000000000000000000000000000000815260040161039290610e83565b60405180910390fd5b8073ffffffffffffffffffffffffffffffffffffffff166108fc6064605f6103c1610243565b6103cb9190610ed2565b6103d59190610f43565b9081150290604051600060405180830381858888f19350505050158015610400573d6000803e3d6000fd5b50600260009054906101000a900473ffffffffffffffffffffffffffffffffffffffff1673ffffffffffffffffffffffffffffffffffffffff166108fc610445610243565b9081150290604051600060405180830381858888f19350505050158015610470573d6000803e3d6000fd5b5050565b604051806060016040528084815260200183815260200182815250600360008201518160000190816104a69190611116565b506020820151816001015560408201518160020155905050505050565b600160009054906101000a900473ffffffffffffffffffffffffffffffffffffffff1673ffffffffffffffffffffffffffffffffffffffff163373ffffffffffffffffffffffffffffffffffffffff1614610553576040517f08c379a000000000000000000000000000000000000000000000000000000000815260040161054a90610e83565b60405180910390fd5b8060036002018190555050565b60066020528060005260406000206000915090505481565b600380600001805461058990610e06565b80601f01602080910402602001604051908101604052809291908181526020018280546105b590610e06565b80156106025780601f106105d757610100808354040283529160200191610602565b820191906000526020600020905b8154815290600101906020018083116105e557829003601f168201915b5050505050908060010154908060020154905083565b6000341161062557600080fd5b6003600101544211801561063d575060036002015442105b61064657600080fd5b60008054906101000a900473ffffffffffffffffffffffffffffffffffffffff1673ffffffffffffffffffffffffffffffffffffffff166352e1ea89336040518263ffffffff1660e01b815260040161069f91906111f7565b600060405180830381600087803b1580156106b957600080fd5b505af11580156106cd573d6000803e3d6000fd5b505050506000600660003373ffffffffffffffffffffffffffffffffffffffff1673ffffffffffffffffffffffffffffffffffffffff16815260200190815260200160002054036107a45760008054906101000a900473ffffffffffffffffffffffffffffffffffffffff1673ffffffffffffffffffffffffffffffffffffffff1663d63b0f03336040518263ffffffff1660e01b815260040161077191906111f7565b600060405180830381600087803b15801561078b57600080fd5b505af115801561079f573d6000803e3d6000fd5b505050505b80600660003373ffffffffffffffffffffffffffffffffffffffff1673ffffffffffffffffffffffffffffffffffffffff16815260200190815260200160002060008282546107f39190611212565b9250508190555050565b60008054906101000a900473ffffffffffffffffffffffffffffffffffffffff1681565b6000600660003373ffffffffffffffffffffffffffffffffffffffff1673ffffffffffffffffffffffffffffffffffffffff16815260200190815260200160002054905090565b60405180606001604052806060815260200160008152602001600081525090565b6000819050919050565b61089c81610889565b82525050565b60006020820190506108b76000830184610893565b92915050565b600081519050919050565b600082825260208201905092915050565b60005b838110156108f75780820151818401526020810190506108dc565b60008484015250505050565b6000601f19601f8301169050919050565b600061091f826108bd565b61092981856108c8565b93506109398185602086016108d9565b61094281610903565b840191505092915050565b61095681610889565b82525050565b600060608301600083015184820360008601526109798282610914565b915050602083015161098e602086018261094d565b5060408301516109a1604086018261094d565b508091505092915050565b600060208201905081810360008301526109c6818461095c565b905092915050565b6000604051905090565b600080fd5b600080fd5b600073ffffffffffffffffffffffffffffffffffffffff82169050919050565b6000610a0d826109e2565b9050919050565b610a1d81610a02565b8114610a2857600080fd5b50565b600081359050610a3a81610a14565b92915050565b600060208284031215610a5657610a556109d8565b5b6000610a6484828501610a2b565b91505092915050565b600080fd5b600080fd5b7f4e487b7100000000000000000000000000000000000000000000000000000000600052604160045260246000fd5b610aaf82610903565b810181811067ffffffffffffffff82111715610ace57610acd610a77565b5b80604052505050565b6000610ae16109ce565b9050610aed8282610aa6565b919050565b600067ffffffffffffffff821115610b0d57610b0c610a77565b5b610b1682610903565b9050602081019050919050565b82818337600083830152505050565b6000610b45610b4084610af2565b610ad7565b905082815260208101848484011115610b6157610b60610a72565b5b610b6c848285610b23565b509392505050565b600082601f830112610b8957610b88610a6d565b5b8135610b99848260208601610b32565b91505092915050565b610bab81610889565b8114610bb657600080fd5b50565b600081359050610bc881610ba2565b92915050565b600080600060608486031215610be757610be66109d8565b5b600084013567ffffffffffffffff811115610c0557610c046109dd565b5b610c1186828701610b74565b9350506020610c2286828701610bb9565b9250506040610c3386828701610bb9565b9150509250925092565b600060208284031215610c5357610c526109d8565b5b6000610c6184828501610bb9565b91505092915050565b6000610c75826109e2565b9050919050565b610c8581610c6a565b8114610c9057600080fd5b50565b600081359050610ca281610c7c565b92915050565b600060208284031215610cbe57610cbd6109d8565b5b6000610ccc84828501610c93565b91505092915050565b600082825260208201905092915050565b6000610cf1826108bd565b610cfb8185610cd5565b9350610d0b8185602086016108d9565b610d1481610903565b840191505092915050565b60006060820190508181036000830152610d398186610ce6565b9050610d486020830185610893565b610d556040830184610893565b949350505050565b6000819050919050565b6000610d82610d7d610d78846109e2565b610d5d565b6109e2565b9050919050565b6000610d9482610d67565b9050919050565b6000610da682610d89565b9050919050565b610db681610d9b565b82525050565b6000602082019050610dd16000830184610dad565b92915050565b7f4e487b7100000000000000000000000000000000000000000000000000000000600052602260045260246000fd5b60006002820490506001821680610e1e57607f821691505b602082108103610e3157610e30610dd7565b5b50919050565b7f4e6f74206f776e65720000000000000000000000000000000000000000000000600082015250565b6000610e6d600983610cd5565b9150610e7882610e37565b602082019050919050565b60006020820190508181036000830152610e9c81610e60565b9050919050565b7f4e487b7100000000000000000000000000000000000000000000000000000000600052601160045260246000fd5b6000610edd82610889565b9150610ee883610889565b9250828202610ef681610889565b91508282048414831517610f0d57610f0c610ea3565b5b5092915050565b7f4e487b7100000000000000000000000000000000000000000000000000000000600052601260045260246000fd5b6000610f4e82610889565b9150610f5983610889565b925082610f6957610f68610f14565b5b828204905092915050565b60008190508160005260206000209050919050565b60006020601f8301049050919050565b600082821b905092915050565b600060088302610fd67fffffffffffffffffffffffffffffffffffffffffffffffffffffffffffffffff82610f99565b610fe08683610f99565b95508019841693508086168417925050509392505050565b600061101361100e61100984610889565b610d5d565b610889565b9050919050565b6000819050919050565b61102d83610ff8565b6110416110398261101a565b848454610fa6565b825550505050565b600090565b611056611049565b611061818484611024565b505050565b5b818110156110855761107a60008261104e565b600181019050611067565b5050565b601f8211156110ca5761109b81610f74565b6110a484610f89565b810160208510156110b3578190505b6110c76110bf85610f89565b830182611066565b50505b505050565b600082821c905092915050565b60006110ed600019846008026110cf565b1980831691505092915050565b600061110683836110dc565b9150826002028217905092915050565b61111f826108bd565b67ffffffffffffffff81111561113857611137610a77565b5b6111428254610e06565b61114d828285611089565b600060209050601f831160018114611180576000841561116e578287015190505b61117885826110fa565b8655506111e0565b601f19841661118e86610f74565b60005b828110156111b657848901518255600182019150602085019450602081019050611191565b868310156111d357848901516111cf601f8916826110dc565b8355505b6001600288020188555050505b505050505050565b6111f181610c6a565b82525050565b600060208201905061120c60008301846111e8565b92915050565b600061121d82610889565b915061122883610889565b92508282019050808211156112405761123f610ea3565b5b9291505056fea2646970667358221220705fe688d90ecb40991da78bf018abbc03877a51c5d864320c3620360dda809564736f6c63430008110033",
  "immutableReferences": {},
  "source": "// SPDX-License-Identifier: MIT\n\npragma solidity >=0.4.22 <0.9.0;\n\nimport \"./Administrator.sol\";\n\ncontract ProjectFunding {\n  \n    Administrator public admin;\n    address owner;\n    address payable adminCA;\n\n    constructor(address payable _adminAddr) {\n        owner = msg.sender;\n        admin = Administrator(_adminAddr);\n        adminCA = _adminAddr;\n    }\n\n    modifier onlyOwner() {\n        require(msg.sender == owner, \"Not owner\");\n        _;\n    }\n    \n    struct funding {\n        string fundingName; //  \n        uint fundingStartDate; //  (unix time) \n        uint fundingEndDate; //  (unix time) \n    }   \n\n    funding public newFunding; // funding  newFunding \n    \n    //  \n    function setFunding( //     \n        string memory _fundingName, //  \n        uint _fundingStartDate, \n        uint _fundingEndDate \n    ) public {\n        newFunding = funding({\n            fundingName: _fundingName,\n            fundingStartDate: _fundingStartDate,\n            fundingEndDate: _fundingEndDate\n        });\n    }\n\n    //   \n    function extendEndDate(uint _fundingEndDate) public onlyOwner {\n        newFunding.fundingEndDate = _fundingEndDate;\n    }\n\n    //     -> tuple \n    function getFunding() public view returns (funding memory) {\n        return newFunding;\n    }\n\n    //  \n    mapping (address => uint) public donateList; //          \n\n    //   - wei \n    function donate(uint _amount) public payable { //     \n        //  0 \n        require(msg.value > 0);\n        //        \n        require(block.timestamp > newFunding.fundingStartDate && block.timestamp < newFunding.fundingEndDate);\n        \n        // donator  \n        admin.setDonator(msg.sender);\n        //       \n        if(donateList[msg.sender] == 0) {\n            admin.addDonatedPFList(msg.sender);\n        }\n        \n        // \n        donateList[msg.sender] += _amount;\n    }\n\n    //     \n    function getBalance() public view returns(uint) {\n        return address(this).balance;\n    }\n\n    //   \n    function getMyDonateAmount() public view returns (uint) {\n        return donateList[msg.sender];\n    }\n\n    //      ( owner)\n    function withdrawMoney(address payable _to) public onlyOwner {\n        //   95% \n        _to.transfer((getBalance() * 95) / 100);\n\n        //   5% admin \n        adminCA.transfer((getBalance()));\n    }\n}\n",
  "sourcePath": "/Users/seon/Desktop/LikeLion_BCS/TOcO/Toco_contract/contracts/ProjectFunding.sol",
  "compiler": {
    "name": "solc",
    "version": "0.8.17+commit.8df45f5f.Emscripten.clang"
  },
  "schemaVersion": "3.4.11",
  "updatedAt": "2023-01-06T17:20:38.021Z",
  "networkType": "ethereum",
  "devdoc": {
    "kind": "dev",
    "methods": {},
    "version": 1
  },
  "userdoc": {
    "kind": "user",
    "methods": {},
    "version": 1
  }
}