{
  "contractName": "ProjectFunding",
  "abi": [
    {
      "inputs": [
        {
          "internalType": "address payable",
          "name": "_adminAddr",
          "type": "address"
        }
      ],
      "stateMutability": "nonpayable",
      "type": "constructor"
    },
    {
      "inputs": [],
      "name": "admin",
      "outputs": [
        {
          "internalType": "contract Administrator",
          "name": "",
          "type": "address"
        }
      ],
      "stateMutability": "view",
      "type": "function",
      "constant": true
    },
    {
      "inputs": [
        {
          "internalType": "address",
          "name": "",
          "type": "address"
        }
      ],
      "name": "donateList",
      "outputs": [
        {
          "internalType": "uint256",
          "name": "",
          "type": "uint256"
        }
      ],
      "stateMutability": "view",
      "type": "function",
      "constant": true
    },
    {
      "inputs": [],
      "name": "newFunding",
      "outputs": [
        {
          "internalType": "string",
          "name": "fundingName",
          "type": "string"
        },
        {
          "internalType": "uint256",
          "name": "fundingStartDate",
          "type": "uint256"
        },
        {
          "internalType": "uint256",
          "name": "fundingEndDate",
          "type": "uint256"
        },
        {
          "internalType": "string",
          "name": "docId",
          "type": "string"
        }
      ],
      "stateMutability": "view",
      "type": "function",
      "constant": true
    },
    {
      "inputs": [
        {
          "internalType": "string",
          "name": "_fundingName",
          "type": "string"
        },
        {
          "internalType": "uint256",
          "name": "_fundingStartDate",
          "type": "uint256"
        },
        {
          "internalType": "uint256",
          "name": "_fundingEndDate",
          "type": "uint256"
        },
        {
          "internalType": "string",
          "name": "_docId",
          "type": "string"
        }
      ],
      "name": "setFunding",
      "outputs": [],
      "stateMutability": "nonpayable",
      "type": "function"
    },
    {
      "inputs": [
        {
          "internalType": "uint256",
          "name": "_fundingEndDate",
          "type": "uint256"
        }
      ],
      "name": "extendEndDate",
      "outputs": [],
      "stateMutability": "nonpayable",
      "type": "function"
    },
    {
      "inputs": [],
      "name": "getFunding",
      "outputs": [
        {
          "components": [
            {
              "internalType": "string",
              "name": "fundingName",
              "type": "string"
            },
            {
              "internalType": "uint256",
              "name": "fundingStartDate",
              "type": "uint256"
            },
            {
              "internalType": "uint256",
              "name": "fundingEndDate",
              "type": "uint256"
            },
            {
              "internalType": "string",
              "name": "docId",
              "type": "string"
            }
          ],
          "internalType": "struct ProjectFunding.funding",
          "name": "",
          "type": "tuple"
        }
      ],
      "stateMutability": "view",
      "type": "function",
      "constant": true
    },
    {
      "inputs": [
        {
          "internalType": "uint256",
          "name": "_amount",
          "type": "uint256"
        }
      ],
      "name": "donate",
      "outputs": [],
      "stateMutability": "payable",
      "type": "function",
      "payable": true
    },
    {
      "inputs": [],
      "name": "getBalance",
      "outputs": [
        {
          "internalType": "uint256",
          "name": "",
          "type": "uint256"
        }
      ],
      "stateMutability": "view",
      "type": "function",
      "constant": true
    },
    {
      "inputs": [
        {
          "internalType": "address",
          "name": "_user",
          "type": "address"
        }
      ],
      "name": "getMyDonateAmount",
      "outputs": [
        {
          "internalType": "uint256",
          "name": "",
          "type": "uint256"
        }
      ],
      "stateMutability": "view",
      "type": "function",
      "constant": true
    },
    {
      "inputs": [
        {
          "internalType": "address payable",
          "name": "_to",
          "type": "address"
        }
      ],
      "name": "withdrawMoney",
      "outputs": [],
      "stateMutability": "nonpayable",
      "type": "function"
    }
  ],
  "bytecode": "0x60806040523480156200001157600080fd5b50604051620016993803806200169983398181016040528101906200003791906200016a565b33600160006101000a81548173ffffffffffffffffffffffffffffffffffffffff021916908373ffffffffffffffffffffffffffffffffffffffff160217905550806000806101000a81548173ffffffffffffffffffffffffffffffffffffffff021916908373ffffffffffffffffffffffffffffffffffffffff16021790555080600260006101000a81548173ffffffffffffffffffffffffffffffffffffffff021916908373ffffffffffffffffffffffffffffffffffffffff160217905550506200019c565b600080fd5b600073ffffffffffffffffffffffffffffffffffffffff82169050919050565b6000620001328262000105565b9050919050565b620001448162000125565b81146200015057600080fd5b50565b600081519050620001648162000139565b92915050565b60006020828403121562000183576200018262000100565b5b6000620001938482850162000153565b91505092915050565b6114ed80620001ac6000396000f3fe6080604052600436106100915760003560e01c80639a4e5750116100595780639a4e57501461017b578063a70b12c8146101a4578063ed366b2d146101e1578063f14faf6f1461020f578063f851a4401461022b57610091565b806312065fe01461009657806312af5f98146100c15780632f971029146100ec578063358fe2d6146101155780633d3962621461013e575b600080fd5b3480156100a257600080fd5b506100ab610256565b6040516100b89190610a00565b60405180910390f35b3480156100cd57600080fd5b506100d661025e565b6040516100e39190610b24565b60405180910390f35b3480156100f857600080fd5b50610113600480360381019061010e9190610bb8565b6103b0565b005b34801561012157600080fd5b5061013c60048036038101906101379190610d46565b610519565b005b34801561014a57600080fd5b5061016560048036038101906101609190610e23565b610585565b6040516101729190610a00565b60405180910390f35b34801561018757600080fd5b506101a2600480360381019061019d9190610e50565b6105ce565b005b3480156101b057600080fd5b506101cb60048036038101906101c69190610e23565b61066b565b6040516101d89190610a00565b60405180910390f35b3480156101ed57600080fd5b506101f6610683565b6040516102069493929190610ec7565b60405180910390f35b61022960048036038101906102249190610e50565b6107b1565b005b34801561023757600080fd5b5061024061099b565b60405161024d9190610f79565b60405180910390f35b600047905090565b6102666109bf565b600360405180608001604052908160008201805461028390610fc3565b80601f01602080910402602001604051908101604052809291908181526020018280546102af90610fc3565b80156102fc5780601f106102d1576101008083540402835291602001916102fc565b820191906000526020600020905b8154815290600101906020018083116102df57829003601f168201915b50505050508152602001600182015481526020016002820154815260200160038201805461032990610fc3565b80601f016020809104026020016040519081016040528092919081815260200182805461035590610fc3565b80156103a25780601f10610377576101008083540402835291602001916103a2565b820191906000526020600020905b81548152906001019060200180831161038557829003601f168201915b505050505081525050905090565b600160009054906101000a900473ffffffffffffffffffffffffffffffffffffffff1673ffffffffffffffffffffffffffffffffffffffff163373ffffffffffffffffffffffffffffffffffffffff1614610440576040517f08c379a000000000000000000000000000000000000000000000000000000000815260040161043790611040565b60405180910390fd5b8073ffffffffffffffffffffffffffffffffffffffff166108fc6064605f610466610256565b610470919061108f565b61047a9190611100565b9081150290604051600060405180830381858888f193505050501580156104a5573d6000803e3d6000fd5b50600260009054906101000a900473ffffffffffffffffffffffffffffffffffffffff1673ffffffffffffffffffffffffffffffffffffffff166108fc6104ea610256565b9081150290604051600060405180830381858888f19350505050158015610515573d6000803e3d6000fd5b5050565b6040518060800160405280858152602001848152602001838152602001828152506003600082015181600001908161055191906112d3565b506020820151816001015560408201518160020155606082015181600301908161057b91906112d3565b5090505050505050565b6000600760008373ffffffffffffffffffffffffffffffffffffffff1673ffffffffffffffffffffffffffffffffffffffff168152602001908152602001600020549050919050565b600160009054906101000a900473ffffffffffffffffffffffffffffffffffffffff1673ffffffffffffffffffffffffffffffffffffffff163373ffffffffffffffffffffffffffffffffffffffff161461065e576040517f08c379a000000000000000000000000000000000000000000000000000000000815260040161065590611040565b60405180910390fd5b8060036002018190555050565b60076020528060005260406000206000915090505481565b600380600001805461069490610fc3565b80601f01602080910402602001604051908101604052809291908181526020018280546106c090610fc3565b801561070d5780601f106106e25761010080835404028352916020019161070d565b820191906000526020600020905b8154815290600101906020018083116106f057829003601f168201915b50505050509080600101549080600201549080600301805461072e90610fc3565b80601f016020809104026020016040519081016040528092919081815260200182805461075a90610fc3565b80156107a75780601f1061077c576101008083540402835291602001916107a7565b820191906000526020600020905b81548152906001019060200180831161078a57829003601f168201915b5050505050905084565b600034116107be57600080fd5b600360010154421180156107d6575060036002015442105b6107df57600080fd5b60008054906101000a900473ffffffffffffffffffffffffffffffffffffffff1673ffffffffffffffffffffffffffffffffffffffff166352e1ea89336040518263ffffffff1660e01b815260040161083891906113b4565b600060405180830381600087803b15801561085257600080fd5b505af1158015610866573d6000803e3d6000fd5b505050506000600760003373ffffffffffffffffffffffffffffffffffffffff1673ffffffffffffffffffffffffffffffffffffffff16815260200190815260200160002054036109425760008054906101000a900473ffffffffffffffffffffffffffffffffffffffff1673ffffffffffffffffffffffffffffffffffffffff166377c03b4633600380016040518363ffffffff1660e01b815260040161090f929190611453565b600060405180830381600087803b15801561092957600080fd5b505af115801561093d573d6000803e3d6000fd5b505050505b80600760003373ffffffffffffffffffffffffffffffffffffffff1673ffffffffffffffffffffffffffffffffffffffff16815260200190815260200160002060008282546109919190611483565b9250508190555050565b60008054906101000a900473ffffffffffffffffffffffffffffffffffffffff1681565b6040518060800160405280606081526020016000815260200160008152602001606081525090565b6000819050919050565b6109fa816109e7565b82525050565b6000602082019050610a1560008301846109f1565b92915050565b600081519050919050565b600082825260208201905092915050565b60005b83811015610a55578082015181840152602081019050610a3a565b60008484015250505050565b6000601f19601f8301169050919050565b6000610a7d82610a1b565b610a878185610a26565b9350610a97818560208601610a37565b610aa081610a61565b840191505092915050565b610ab4816109e7565b82525050565b60006080830160008301518482036000860152610ad78282610a72565b9150506020830151610aec6020860182610aab565b506040830151610aff6040860182610aab565b5060608301518482036060860152610b178282610a72565b9150508091505092915050565b60006020820190508181036000830152610b3e8184610aba565b905092915050565b6000604051905090565b600080fd5b600080fd5b600073ffffffffffffffffffffffffffffffffffffffff82169050919050565b6000610b8582610b5a565b9050919050565b610b9581610b7a565b8114610ba057600080fd5b50565b600081359050610bb281610b8c565b92915050565b600060208284031215610bce57610bcd610b50565b5b6000610bdc84828501610ba3565b91505092915050565b600080fd5b600080fd5b7f4e487b7100000000000000000000000000000000000000000000000000000000600052604160045260246000fd5b610c2782610a61565b810181811067ffffffffffffffff82111715610c4657610c45610bef565b5b80604052505050565b6000610c59610b46565b9050610c658282610c1e565b919050565b600067ffffffffffffffff821115610c8557610c84610bef565b5b610c8e82610a61565b9050602081019050919050565b82818337600083830152505050565b6000610cbd610cb884610c6a565b610c4f565b905082815260208101848484011115610cd957610cd8610bea565b5b610ce4848285610c9b565b509392505050565b600082601f830112610d0157610d00610be5565b5b8135610d11848260208601610caa565b91505092915050565b610d23816109e7565b8114610d2e57600080fd5b50565b600081359050610d4081610d1a565b92915050565b60008060008060808587031215610d6057610d5f610b50565b5b600085013567ffffffffffffffff811115610d7e57610d7d610b55565b5b610d8a87828801610cec565b9450506020610d9b87828801610d31565b9350506040610dac87828801610d31565b925050606085013567ffffffffffffffff811115610dcd57610dcc610b55565b5b610dd987828801610cec565b91505092959194509250565b6000610df082610b5a565b9050919050565b610e0081610de5565b8114610e0b57600080fd5b50565b600081359050610e1d81610df7565b92915050565b600060208284031215610e3957610e38610b50565b5b6000610e4784828501610e0e565b91505092915050565b600060208284031215610e6657610e65610b50565b5b6000610e7484828501610d31565b91505092915050565b600082825260208201905092915050565b6000610e9982610a1b565b610ea38185610e7d565b9350610eb3818560208601610a37565b610ebc81610a61565b840191505092915050565b60006080820190508181036000830152610ee18187610e8e565b9050610ef060208301866109f1565b610efd60408301856109f1565b8181036060830152610f0f8184610e8e565b905095945050505050565b6000819050919050565b6000610f3f610f3a610f3584610b5a565b610f1a565b610b5a565b9050919050565b6000610f5182610f24565b9050919050565b6000610f6382610f46565b9050919050565b610f7381610f58565b82525050565b6000602082019050610f8e6000830184610f6a565b92915050565b7f4e487b7100000000000000000000000000000000000000000000000000000000600052602260045260246000fd5b60006002820490506001821680610fdb57607f821691505b602082108103610fee57610fed610f94565b5b50919050565b7f4e6f74206f776e65720000000000000000000000000000000000000000000000600082015250565b600061102a600983610e7d565b915061103582610ff4565b602082019050919050565b600060208201905081810360008301526110598161101d565b9050919050565b7f4e487b7100000000000000000000000000000000000000000000000000000000600052601160045260246000fd5b600061109a826109e7565b91506110a5836109e7565b92508282026110b3816109e7565b915082820484148315176110ca576110c9611060565b5b5092915050565b7f4e487b7100000000000000000000000000000000000000000000000000000000600052601260045260246000fd5b600061110b826109e7565b9150611116836109e7565b925082611126576111256110d1565b5b828204905092915050565b60008190508160005260206000209050919050565b60006020601f8301049050919050565b600082821b905092915050565b6000600883026111937fffffffffffffffffffffffffffffffffffffffffffffffffffffffffffffffff82611156565b61119d8683611156565b95508019841693508086168417925050509392505050565b60006111d06111cb6111c6846109e7565b610f1a565b6109e7565b9050919050565b6000819050919050565b6111ea836111b5565b6111fe6111f6826111d7565b848454611163565b825550505050565b600090565b611213611206565b61121e8184846111e1565b505050565b5b818110156112425761123760008261120b565b600181019050611224565b5050565b601f8211156112875761125881611131565b61126184611146565b81016020851015611270578190505b61128461127c85611146565b830182611223565b50505b505050565b600082821c905092915050565b60006112aa6000198460080261128c565b1980831691505092915050565b60006112c38383611299565b9150826002028217905092915050565b6112dc82610a1b565b67ffffffffffffffff8111156112f5576112f4610bef565b5b6112ff8254610fc3565b61130a828285611246565b600060209050601f83116001811461133d576000841561132b578287015190505b61133585826112b7565b86555061139d565b601f19841661134b86611131565b60005b828110156113735784890151825560018201915060208501945060208101905061134e565b86831015611390578489015161138c601f891682611299565b8355505b6001600288020188555050505b505050505050565b6113ae81610de5565b82525050565b60006020820190506113c960008301846113a5565b92915050565b600081546113dc81610fc3565b6113e68186610e7d565b9450600182166000811461140157600181146114175761144a565b60ff19831686528115156020028601935061144a565b61142085611131565b60005b8381101561144257815481890152600182019150602081019050611423565b808801955050505b50505092915050565b600060408201905061146860008301856113a5565b818103602083015261147a81846113cf565b90509392505050565b600061148e826109e7565b9150611499836109e7565b92508282019050808211156114b1576114b0611060565b5b9291505056fea264697066735822122094b66d88fd5bbdd4bbe212a2013c7780034e937dd17caeed340ccf20ce7f62f564736f6c63430008110033",
  "immutableReferences": {},
  "source": "// SPDX-License-Identifier: MIT\n\npragma solidity >=0.4.22 <0.9.0;\n\nimport \"./Administrator.sol\";\n\ncontract ProjectFunding {\n  \n    Administrator public admin;\n    address owner;\n    address payable adminCA;\n\n    constructor(address payable _adminAddr) {\n        owner = msg.sender;\n        admin = Administrator(_adminAddr);\n        adminCA = _adminAddr;\n    }\n\n    modifier onlyOwner() {\n        require(msg.sender == owner, \"Not owner\");\n        _;\n    }\n    \n    struct funding {\n        string fundingName; //  \n        uint fundingStartDate; //  (unix time) \n        uint fundingEndDate; //  (unix time) \n        string docId; // DB ID\n    }   \n\n    funding public newFunding; // funding  newFunding \n    \n    //  \n    function setFunding( //     \n        string memory _fundingName,\n        uint _fundingStartDate, \n        uint _fundingEndDate,\n        string memory _docId\n    ) public {\n        newFunding = funding({\n            fundingName: _fundingName,\n            fundingStartDate: _fundingStartDate,\n            fundingEndDate: _fundingEndDate,\n            docId: _docId\n        });\n    }\n\n    //   \n    function extendEndDate(uint _fundingEndDate) public onlyOwner {\n        newFunding.fundingEndDate = _fundingEndDate;\n    }\n\n    //     -> tuple \n    function getFunding() public view returns (funding memory) {\n        return newFunding;\n    }\n\n    //  \n    mapping (address => uint) public donateList; //          \n\n    //   - wei \n    function donate(uint _amount) public payable { //     \n        //  0 \n        require(msg.value > 0);\n        //        \n        require(block.timestamp > newFunding.fundingStartDate && block.timestamp < newFunding.fundingEndDate);\n        \n        // donator  \n        admin.setDonator(msg.sender);\n        //       \n        if(donateList[msg.sender] == 0) {\n            admin.addDonatedPFList(msg.sender, newFunding.docId);\n        }\n        \n        // \n        donateList[msg.sender] += _amount;\n    }\n\n    //     \n    function getBalance() public view returns(uint) {\n        return address(this).balance;\n    }\n\n    //   \n    function getMyDonateAmount(address _user) public view returns (uint) {\n        return donateList[_user];\n    }\n\n    //      ( owner)\n    function withdrawMoney(address payable _to) public onlyOwner {\n        //   95% \n        _to.transfer((getBalance() * 95) / 100);\n\n        //   5% admin \n        adminCA.transfer((getBalance()));\n    }\n}\n",
  "sourcePath": "/Users/seon/Desktop/LikeLion_BCS/TOcO/Toco_contract/contracts/ProjectFunding.sol",
  "compiler": {
    "name": "solc",
    "version": "0.8.17+commit.8df45f5f.Emscripten.clang"
  },
  "schemaVersion": "3.4.11",
  "updatedAt": "2023-01-11T17:57:39.585Z",
  "networkType": "ethereum",
  "devdoc": {
    "kind": "dev",
    "methods": {},
    "version": 1
  },
  "userdoc": {
    "kind": "user",
    "methods": {},
    "version": 1
  }
}